:020000040800F2
:1000000000000824812D000821270008232700086C
:1000100025270008272700082927000800000000DE
:10002000000000000000000000000000C192000875
:100030002B2700080000000061930008898B00084E
:10004000D52D0008D52D0008D52D0008D52D000888
:10005000D52D0008D52D00082D27000837270008CA
:10006000D52D000841270008D52D00084D27000890
:10007000D52D0008D52D0008D52D0008D52D000858
:10008000D52D0008D52D0008D52D00085D270008C6
:100090006D270008D52D0008D52D00087D27000804
:1000A000D52D0008D52D0008D52D0008D52D000828
:1000B0008D270008D52D0008D52D0008D52D000866
:1000C000D52D0008D52D0008D52D0008D52D000808
:1000D000D52D0008D52D0008D52D0008D52D0008F8
:1000E0009D270008D52D000800000000D52D000830
:1000F000D52D0008D52D0008D52D0008D52D0008D8
:10010000D52D0008D52D0008D52D0008D52D0008C7
:10011000D52D0008D52D0008D52D0008D52D0008B7
:10012000D52D0008D52D0008D52D0008D52D0008A7
:10013000D52D0008D52D0008D52D0008D52D000897
:1001400000000000000000000000000000000000AF
:10015000D52D0008D52D0008D52D0008D52D000877
:10016000D52D0008D52D0008D52D0008D52D000867
:10017000D52D0008D52D0008D52D00080000000061
:10018000D52D0008D52D0008D52D0008D52D000847
:10019000D52D0008D52D0008D52D0008D52D000837
:1001A000D52D0008D52D0008D52D0008D52D000827
:1001B000D52D0008D52D0008D52D0008D52D000817
:1001C000D52D0008D52D0008D52D0008D52D000807
:1001D000D52D0008D52D0008D52D0008D52D0008F7
:1001E000D52D0008D52D0008D52D0008D52D0008E7
:1001F000D52D0008D52D0008D52D0008D52D0008D7
:10020000D52D0008D52D0008D52D0008D52D0008C6
:10021000D52D0008D52D0008D52D0008D52D0008B6
:10022000D52D0008D52D0008D52D000800000000B0
:10023000D52D0008D52D000800000000D52D0008A0
:10024000D52D0008D52D0008D52D0008D52D000886
:10025000D52D0008D52D0008D52D0008D52D000876
:10026000D52D0008D52D0008D52D0008D52D000866
:10027000D52D0008D52D0008D52D00080000000060
:10028000D52D0008D52D0008D52D00080000000050
:0802900000000000D52D00085C
:1002A00010B5054C237833B9044B13B10448AFF3B0
:1002B00000800123237010BD70090024000000009D
:1002C000E4C9030808B5034B1BB103490348AFF366
:1002D000008008BD0000000074090024E4C9030880
:1002E00070B54FF0FF0C4CF4E06C1CEA11541DBFCC
:1002F0001CEA135594EA0C0F95EA0C0F00F0DEF897
:100300002C4481EA030621EA4C5123EA4C5350EA7B
:10031000013518BF52EA033541F4801143F48013CC
:1003200038D0A0FB02CE4FF00005E1FB02E506F05D
:100330000042E0FB03E54FF00006E1FB03569CF0B2
:10034000000F18BF4EF0010EA4F1FF04B6F5007FB8
:1003500064F5407404D25FEA4E0E6D4146EB06062A
:1003600042EAC62141EA55514FEAC52040EA5E50B3
:100370004FEACE2EB4F1FD0C88BFBCF5E06F1ED85D
:10038000BEF1004F08BF5FEA500E50F1000041EB94
:10039000045170BD06F0004646EA010140EA020041
:1003A00081EA0301B4EB5C04C2BFD4EB0C0541EA63
:1003B000045170BD41F480114FF0000E013C00F378
:1003C000AB8014F1360FDEBF002001F0004170BD9C
:1003D000C4F10004203C35DA0C341BDC04F11404B5
:1003E000C4F1200500FA05F320FA04F001FA05F241
:1003F00040EA020001F0004221F0004110EBD3700E
:1004000021FA04F642EB06015EEA430E08BF20EA39
:10041000D37070BDC4F10C04C4F1200500FA04F3DC
:1004200020FA05F001FA04F240EA020001F000416E
:1004300010EBD37041F100015EEA430E08BF20EAE1
:10044000D37070BDC4F1200500FA05F24EEA020E29
:1004500020FA04F301FA05F243EA020321FA04F058
:1004600001F0004121FA04F220EA020000EBD3700F
:100470005EEA430E08BF20EAD37070BD94F0000F0F
:100480000FD101F00046400041EB010111F4801F43
:1004900008BF013CF7D041EA060195F0000F18BFF4
:1004A000704703F00046520043EB030313F4801F30
:1004B00008BF013DF7D043EA0603704794EA0C0FEA
:1004C0000CEA135518BF95EA0C0F0CD050EA410600
:1004D00018BF52EA4306D1D181EA030101F000417D
:1004E0004FF0000070BD50EA410606BF10461946A5
:1004F00052EA430619D094EA0C0F02D150EA0136B1
:1005000013D195EA0C0F05D152EA03361CBF1046F1
:1005100019460AD181EA030101F0004141F0FE4190
:1005200041F470014FF0000070BD41F0FE4141F414
:10053000780170BD81F0004102E000BF83F000430C
:1005400030B54FEA41044FEA430594EA050F08BF6E
:1005500090EA020F1FBF54EA000C55EA020C7FEA32
:10056000645C7FEA655C00F0E2804FEA5454D4EBAF
:100570005555B8BF6D420CDD2C4480EA020281EA79
:10058000030382EA000083EA010180EA020281EAB1
:100590000303362D88BF30BD11F0004F4FEA013103
:1005A0004FF4801C4CEA113102D0404261EB410112
:1005B00013F0004F4FEA03334CEA133302D0524298
:1005C00063EB430394EA050F00F0A780A4F1010454
:1005D000D5F1200E0DDB02FA0EFC22FA05F280188E
:1005E00041F1000103FA0EF2801843FA05F3594174
:1005F0000EE0A5F120050EF1200E012A03FA0EFCF3
:1006000028BF4CF0020C43FA05F3C01851EBE3711C
:1006100001F0004507D54FF0000EDCF1000C7EEB39
:1006200000006EEB0101B1F5801F1BD3B1F5001F77
:100630000CD349085FEA30004FEA3C0C04F1010496
:100640004FEA445212F5800F80F09A80BCF1004FBF
:1006500008BF5FEA500C50F1000041EB045141EA41
:10066000050130BD5FEA4C0C404141EB0101013C0A
:1006700028BFB1F5801FE9D291F0000F04BF0146F9
:100680000020B1FA81F308BF2033A3F10B03B3F1CB
:1006900020020CDA0C3208DD02F1140CC2F10C025B
:1006A00001FA0CF021FA02F10CE002F11402D8BFB9
:1006B000C2F1200C01FA02F120FA0CFCDCBF41EA85
:1006C0000C019040E41AA2BF01EB0451294330BD54
:1006D0006FEA04041F3C1CDA0C340EDC04F1140431
:1006E000C4F1200220FA04F001FA02F340EA030008
:1006F00021FA04F345EA030130BDC4F10C04C4F14E
:10070000200220FA02F001FA04F340EA030029462D
:1007100030BD21FA04F0294630BD94F0000F83F477
:10072000801306BF81F480110134013D4EE77FEA5A
:10073000645C18BF7FEA655C29D094EA050F08BFA6
:1007400090EA020F05D054EA000C04BF1946104687
:1007500030BD91EA030F1EBF0021002030BD5FEACB
:10076000545C05D14000494128BF41F0004130BDF3
:1007700014F580043CBF01F5801130BD01F0004547
:1007800045F0FE4141F470014FF0000030BD7FEABA
:10079000645C1ABF194610467FEA655C1CBF0B46B5
:1007A000024650EA013406BF52EA033591EA030FCC
:1007B00041F4002130BD00BF90F0000F04BF0021C4
:1007C000704730B54FF4806404F132044FF00005F7
:1007D0004FF0000150E700BF90F0000F04BF002170
:1007E000704730B54FF4806404F1320410F00045D6
:1007F00048BF40424FF000013EE700BF42004FEAD1
:10080000E2014FEA31014FEA02701FBF12F07F434D
:1008100093F07F4F81F06051704732F07F4208BF04
:10082000704793F07F4F04BF41F40021704730B50B
:100830004FF4607401F0004521F000411CE700BF57
:1008400050EA010208BF704730B54FF000050AE0DA
:1008500050EA010208BF704730B511F0004502D5DB
:10086000404261EB41014FF4806404F132045FEADD
:10087000915C3FF4D8AE4FF003025FEADC0C18BF86
:1008800003325FEADC0C18BF033202EBDC02C2F178
:10089000200300FA03FC20FA02F001FA03FE40EA0A
:1008A0000E0021FA02F11444BDE600BF4A0011D245
:1008B00012F5001211D20DD56FF47873B3EB6252BA
:1008C0000ED44FEAC12343F0004343EA505323FAC6
:1008D00002F070474FF00000704750EA013002D13B
:1008E0004FF0FF3070474FF0000070474FEA410271
:1008F000B2F1E04324BFB3F5001CDCF1FE5C0DD97E
:1009000001F0004C4FEAC0024CEA5070B2F1004FC7
:1009100040EB830008BF20F00100704711F0804FCA
:1009200021D113F13872BCBF01F00040704741F48F
:1009300080114FEA5252C2F11802C2F1200C10FA93
:100940000CF320FA02F018BF40F001004FEAC12377
:100950004FEAD32303FA0CFC40EA0C0023FA02F31B
:100960004FEA4303CCE77FEA625307D150EA0133F1
:100970001EBF4FF0FE4040F44000704701F00040C1
:1009800040F0FE4040F40000704700BF7BB972B9F0
:100990000029BEBF00204FF0004106E008BF00283C
:1009A0001CBF6FF000414FF0FF3000F0D3B9ADF144
:1009B000080C6DE904CE002909DB002B1ADB00F0DE
:1009C0004DF8DDF804E0DDE9022304B07047404251
:1009D00061EB4101002B1BDB00F040F8DDF804E087
:1009E000DDE9022304B0404261EB4101524263EB76
:1009F00043037047524263EB430300F02FF8DDF8E6
:100A000004E0DDE9022304B0404261EB410170479C
:100A1000524263EB430300F021F8DDF804E0DDE926
:100A2000022304B0524263EB4303704753B94AB9FF
:100A3000002908BF00281CBF4FF0FF314FF0FF30E6
:100A400000F088B9ADF1080C6DE904CE00F006F8AD
:100A5000DDF804E0DDE9022304B070472DE9F0473A
:100A6000089D8E4604468846002B4AD18A42174686
:100A700062D9B2FA82F64EB1C6F1200301FA06F845
:100A800020FA03F3B74043EA0808B4404FEA174E90
:100A90001FFA87FCB8FBFEF1230C0EFB118843EA1A
:100AA000084301FB0CF29A4209D9FB1801F1FF300F
:100AB00080F0EA809A4240F2E78002393B449A1A79
:100AC000A3B2B2FBFEF00EFB102243EA024300FB8E
:100AD0000CFC9C4509D9FB1800F1FF3280F0D68050
:100AE0009C4540F2D3803B44023840EA0140A3EBEE
:100AF0000C0300211DB1F3400022C5E90032BDE81E
:100B0000F0878B4205D90DB1C5E9000100210846E7
:100B1000F5E7B3FA83F1002946D1734502D3824247
:100B200000F20581841A6EEB030201209046002D2D
:100B3000E5D0C5E90048E2E7002A00F09080B2FA6B
:100B400082F6002E40F0A4808A1A030C4FEA174E5A
:100B500080B2BCB20121B2FBFEFC0EFB1C2243EAB8
:100B6000024304FB0CF29A4207D9FB180CF1FF3840
:100B700002D29A4200F2E080C4469B1AB3FBFEF216
:100B80000EFB123340EA034302FB04F49C4207D9F4
:100B9000FB1802F1FF3002D29C4200F2CA800246EA
:100BA0001B1B42EA0C40A5E7C1F120068B4022FA4C
:100BB00006F71F430EFA01F420FA06F32EFA06FE9A
:100BC0004FEA1749234300FA01F81FFA87FCBEFBDE
:100BD000F9F01C0C09FB10EE44EA0E4400FB0CFE7D
:100BE000A64502FA01F209D93C1900F1FF3A80F05A
:100BF0009C80A64540F2998002383C44A4EB0E0448
:100C00001FFA83FEB4FBF9F309FB13444EEA0444D4
:100C100003FB0CFCA44508D93C1903F1FF3E80F00E
:100C20008280A4457FD9023B3C4443EA0040A4EBC8
:100C30000C04A0FB02EC64457346E14662D35FD02E
:100C40005DB1B8EB030264EB090404FA06F622FA7C
:100C500001F31E43CC40C5E9006400214FE7B1FB1E
:100C6000F2FC010C41EA0E4180B240EA01423B46EF
:100C700038463C46B846BE462026B1FBF7F1A2EB0B
:100C8000080241EA0C4166E7014618E710462CE7E6
:100C9000C6F120022EFA02F3B740B14020FA02F268
:100CA0004FEA174E0A43B3FBFEF8BCB20EFB1833F3
:100CB000110C41EA034108FB04F9B04089454FEAB1
:100CC000104380B23ED9791808F1FF3C01D2894522
:100CD0001FD8A1EB0901B1FBFEF909FB04F80EFBDB
:100CE000191192B242EA0142424529D2BA1809F1D9
:100CF000FF31C4D24245C2D2A9F102013A44BEE753
:100D0000F0459DD2BEEB02036CEB070C0138E146C7
:100D100096E7A7EB09094944A8F1020CB1FBFEF9DB
:100D200009FB04F8DBE773467FE7504666E70846B1
:100D3000FDE63B44023A33E7ACF1020C3B441CE7CE
:100D400049469CE7A1EB0901C446B1FBFEF909FB4A
:100D500004F8C4E7704700BF70B588B00A2000F0FF
:100D600099FD6C46304D0FCD0FC495E80F0007C4B8
:100D700023802E48868E2E49A1FB0636760A2D4BFF
:100D8000A3FB0642920802EB42025400361BB6B2A5
:100D9000C58FA1FB05156D0AA3FB05239B0803EB7B
:100DA00043035A00AD1AADB2002407E023460022E7
:100DB0001146104600F0F8FC0134A4B2042C11D8FE
:100DC000B442F3D204EB440000F120030DEB030026
:100DD000234610F81E2C10F81F1C10F8200C00F0F1
:100DE000E3FCE9E7092407E0234600221146104608
:100DF00000F0DAFC013CA4B2042C13D9C4F10903BD
:100E0000AB42F1DA04EB440000F120030DEB0300E8
:100E1000234610F81E2C10F81F1C10F8200C00F0B0
:100E2000C3FCE7E708B070BDFCC90308E009002473
:100E300091739F5DABAAAAAA38B50C4640F2112364
:100E4000984247D040F2132398424DD050284AD1BF
:100E50004B78454AD371512B52D0532B43D18878CC
:100E6000CB7840EA032000B2FFF7B6FC00224FF037
:100E70007C53FFF735FA00223C4BFFF731FAFFF7BE
:100E800035FD394DE8612079637940EA032000B2ED
:100E9000FFF7A2FC00224FF07C53FFF721FA00225B
:100EA000324BFFF71DFAFFF721FDA861A079E37926
:100EB00040EA032000B2FFF78FFC00224FF07C5382
:100EC000FFF70EFA0022294BFFF70AFAFFF70EFD93
:100ED000686108E00A78244B1A704A785A708A7858
:100EE0009A70CA78DA7038BD4B7903F003011E4A54
:100EF0001171C3F3C0039371E3795A3B5371F2E765
:100F00008B78CA7843EA02231BB207EE903AF8EED8
:100F1000E77ADFED176A67EEA67AB3EE007A67EE3E
:100F2000877A114AC2ED027A0B79497943EA0123A3
:100F30001BB207EE903AF8EEE77A67EEA67A67EE14
:100F4000877AC2ED037AA379E17943EA01231BB2E0
:100F500007EE903AF8EEE77A67EEA67A67EE877AC0
:100F6000C2ED047ABFE700BFE009002400806640BC
:100F7000000000380000000038B50C46B44B984221
:100F800000F0D48073D8A3F59B03A3F514539842C3
:100F900000F0F8802CD8AF4B984200F0B08003F5F9
:100FA0008013984223D10A784B7802EB0322AA4B94
:100FB00003EB6203A94D6B848B78CA7803EB0223A1
:100FC0002B840B7985F824304B7903F0030385F8E3
:100FD00025308B79C87903EB0020FFF7FDFB9AA33E
:100FE000D3E90023FFF77CF9FFF780FCA86238BD46
:100FF0009B4B9842FBD10B78323B984D85F854308F
:101000004B78323B85F855308B78C87803EB00205D
:10101000FFF7E2FB8CA3D3E90023FFF761F9FFF7A9
:1010200065FCA8652379607903EB0020FFF7D4FB0A
:1010300085A3D3E90023FFF753F90022894BFFF77B
:101040007DFAFFF753FCE865A379E07903EB002014
:10105000FFF7C2FB7CA3D3E90023FFF741F900228D
:10106000804BFFF76BFAFFF741FC2866BFE77E4B2A
:10107000984200F0B38003F58033984200F0FA8084
:101080007A4B9842B3D10B78323B744D85F8463099
:101090004B78323B85F847308B78C87803EB0020DB
:1010A000FFF79AFB68A3D3E90023FFF719F9FFF7CD
:1010B0001DFCA8642379607903EB0020FFF78CFB0B
:1010C00061A3D3E90023FFF70BF90022654BFFF77B
:1010D00035FAFFF70BFCE864A379E07903EB002015
:1010E000FFF77AFB58A3D3E90023FFF7F9F80022B2
:1010F0005C4BFFF723FAFFF7F9FB286577E70B78DE
:101100004A7803EB0223544A02EB6302534BDA851D
:101110008A78C97802EB01229A85227983F83020F7
:10112000627902F0030283F8312060E70B784A7895
:1011300003EB0223484A02EB6302484B9A868A7803
:10114000C97802EB01225A86227983F83620627927
:1011500002F0010283F837206279C2F3400283F87B
:1011600038206179A279920142EA910283F839200C
:10117000A279D20983F83A20E27902F0030283F8D7
:101180003B2034E70B784A7803EB0223324A02EB28
:101190006302324BDA878A78C97802EB01229A8798
:1011A000227983F84020627902F0010283F841201D
:1011B0006279C2F3400283F842206179A2799201F8
:1011C00042EA910283F84320A279D20983F84420AD
:1011D000E27902F0030283F8452008E74B780878AB
:1011E00003EB0020FFF7F8FA17A3D3E90023FFF77A
:1011F00077F81A4DFFF75AFBA5F86400E378A0785A
:1012000003EB0020FFF7E8FA0FA3D3E90023FFF771
:1012100067F80022164BFFF791F9C5E91A01237907
:1012200085F87030637985F87130A3791B0985F8EA
:101230007230A37903F00F0385F87330E37985F8F2
:101240007430D4E6AFF300809A9999999999B93F8F
:10125000EFC6FF0C21EFB108F0D8FFFFE009002432
:10126000EF21B30C00009940F3406018EFC7FF0C6A
:1012700000408F400A784B7803EB0223044AA2F81F
:1012800076300978637803EB0123A2F87830AEE674
:10129000E009002408B51021384803F041FF40B9A7
:1012A000374A137843F001031370364A1378013339
:1012B00013701021344803F033FF40B9304A1378DB
:1012C00043F0020313702F4A137801331370802107
:1012D0002A4803F025FF40B9294A137843F0040354
:1012E0001370284A1378013313704021264803F005
:1012F00017FF40B9224A137843F008031370214ABC
:1013000013780133137040211C4803F009FF40B9E2
:101310001B4A137843F0100313701A4A13780133F1
:1013200013702021184803F0FBFE40B9144A1378CB
:1013300043F020031370134A137801331370114BD9
:10134000187818B1114B1B78012B09D070B10D4BD7
:1013500000221A700D4B01221A70094B187808BD33
:101360000020084B1870064B1870F8E70023054A58
:101370001370064A1370024A1370F0E70004025813
:101380008E0900248D090024001002588C090024C5
:1013900010B51021154803F0C3FE28B30024102116
:1013A000134803F0BDFE08B944F0020480210F4841
:1013B00003F0B6FE08B944F0040440210C4803F0E1
:1013C000AFFE08B944F008044021084803F0A8FE25
:1013D00008B944F010042021054803F0A1FE08B923
:1013E00044F02004204610BD0124D8E70004025830
:1013F0000010025810B5044608280BD0B4F5004F71
:101400001AD0402C2AD0022C39D0202C48D0012CC4
:1014100057D010BD0821334803F082FE0028EDD1DB
:101420004FF40041304803F07BFE0028E6D12F4AFC
:10143000137801331370E1E74FF400412A4803F0B9
:101440006FFE0028DDD10821264803F069FE002840
:10145000D7D1264A1378013B1370D2E740212148A7
:1014600003F05EFE0028CED10221214803F058FE91
:101470000028C8D11F4A137801331370C3E7022133
:101480001B4803F04DFE0028BFD14021154803F052
:1014900047FE0028B9D1174A1378013B1370B4E70F
:1014A0002021154803F03CFE0028B0D1012110484E
:1014B00003F036FE0028AAD1104A137801331370C6
:1014C000A5E701210A4803F02BFE0028A1D1202125
:1014D000094803F025FE00289BD1084A1378013BF8
:1014E000137096E7000C025800000258610A0024AD
:1014F00000100258620A002400040258630A002403
:10150000024B2C22A3F8FE20704700BF00FF0F60A3
:10151000094B2A22A3F8FE20020AA3F80021C0B238
:10152000A3F800012B22A3F8FE200A0AA3F8002149
:10153000C9B2A3F80011704700FF0F6010B5044650
:1015400000210846FFF7E4FFFFF7DAFF002303E07E
:10155000034AA2F800410133B3F5163FF8D310BD9A
:1015600000FF0F602DE9F84381468846089E141A53
:10157000A4B20134A4B25F1ABFB20137BFB20025D2
:101580000CE004FB053236F812100B4AA2F80011E9
:1015900001339BB2A342F4D30135ADB2BD4209D2AF
:1015A00005EB080189B24846FFF7B2FFFFF7A8FF35
:1015B0000023EFE7BDE8F88300FF0F602DE9F04757
:1015C000642001F049FC774CF023A4F8FE30C322DC
:1015D000A4F80021A4F8FE309622A4F800213622B7
:1015E000A4F8FE203827A4F800714FF03A08A4F8B8
:1015F000FE804FF0050CA4F800C1B422A4F8FE2030
:101600000122A4F80021B121A4F8FE108021A4F841
:1016100000111020A4F80001C020A4F8FE00A4F8D6
:1016200000116421A4F80011C121A4F8FE101321B7
:10163000A4F80011C220A4F8FE00A720A4F800011D
:10164000C520A4F8FE004FF0090EA4F800E1E82040
:10165000A4F8FE004020A4F800018A20A4F80001AC
:101660000025A4F80051A4F800512926A4F800612F
:101670001920A4F80001A520A4F800013320A4F843
:1016800000014FF0E009A4F8FE90A4F800314FF0FB
:101690000609A4F800914FF00B0AA4F800A14FF03E
:1016A000070AA4F800A1A4F80091A4F800C14FF023
:1016B0002E0CA4F800C1A4F800014FF04709A4F8CB
:1016C0000091A4F800814FF01708A4F800814FF0B2
:1016D0001608A4F80081A4F800C14FF03108A4F85E
:1016E00000814FF0E108A4F8FE80A4F80031A4F8CE
:1016F00000E14FF00D08A4F80081A4F800E14FF0DC
:10170000080EA4F800E14FF0230EA4F800E1A4F8BD
:1017100000C1A4F800014620A4F80001A4F800715B
:10172000A4F80011A4F800112C27A4F800714FF0C0
:101730003208A4F80081A4F8FE303C21A4F800117E
:10174000A4F8FE306923A4F800312123A4F8FE3068
:101750002B23A4F8FE30A4F80051A4F80051A4F8FB
:1017600000213F23A4F800312A23A4F8FE30A4F876
:101770000051A4F80051A4F80021DF23A4F800319F
:101780001123A4F8FE30782001F066FBA4F8FE6077
:10179000404601F061FBA4F8FE702846FFF7CEFE3C
:1017A000BDE8F08700FF0F6070B503EB43031C0139
:1017B00004F5E674344B1C444FF0000C27E0334B27
:1017C000DB680133324EA6FB0363C3F34F03013BD7
:1017D0009BB230E02D4BDB6801332D4EA6FB03633B
:1017E000C3F34F03013B9BB238E0284BDB68013366
:1017F000274DA5FB0353C3F34F03013B9BB20EF1EF
:10180000100E24F81E300CF1010C1FFA8CFCBCF1F8
:10181000070F38D8654601FA0CF313F0800FCED0CD
:101820001A4BDB6801331A4EA6FB036323F0010356
:101830009BB2013B9BB2E64624F81C3000FA05F34C
:1018400013F0800FC6D0114BDB680133104EA6FB9E
:10185000036323F001039BB2013B9BB20EF1080628
:1018600024F8163002FA05F515F0800FBDD0074BAD
:10187000DB680133064DA5FB035323F001039BB244
:10188000013B9BB2BBE770BDC4050024EC0C0024F7
:10189000ABAAAAAA70B5054600EB4006F600E636EC
:1018A000002407E02346002211461046FFF77CFF84
:1018B0000134E4B2AC42F5D33346034A0021034875
:1018C00006F0F0F870BD00BFC4050024EC0C002445
:1018D00008B50021014806F07FFA08BDEC0C002491
:1018E00000B589B04FF08043009301230193022299
:1018F000029203930023049305936946044802F07F
:10190000ABFF10B909B05DF804FB00F0C4FDF9E7C6
:101910000C0B002400B589B04FF0804300930123E5
:1019200001930222029203930023049305936946D4
:10193000044802F091FF10B909B05DF804FB00F013
:10194000AAFDF9E76C0A002430B583B0FFF7C8FFA1
:10195000FFF7E0FF184D002400942346224621465D
:10196000284602F0BEFF0094234622462146134833
:1019700002F0B7FF284602F0CFFF88B90F4802F007
:10198000CBFF80B9002201210B4803F0D1F868B9E0
:1019900000220121094803F0CBF850B903B030BD53
:1019A00000F079FDEAE700F076FDEBE700F073FD6B
:1019B000EEE700F070FDF1E70C0B00246C0A002448
:1019C00011F0010F2FD010B582B00446164B98428B
:1019D00004D0164B9C4213D002B010BD6B46144A83
:1019E000402102F0B3FF0028F3D16946104B18687C
:1019F000FFF7C2FA0F210F4B186807F08AF9E8E7E2
:101A00006B460D4A4021204602F0A0FF0028E3D19A
:101A10006946094B1868FFF70FFA0F21054B186844
:101A200007F077F9D8E770470C0B00246C0A002404
:101A3000B8090024000C00249009002400B583B0EC
:101A40000B4BD3F8D82042F00102C3F8D820D3F8CA
:101A5000D83003F001030193019B002205210B20E4
:101A600001F066FA0B2001F073FA03B05DF804FB95
:101A70000044025808B51648164B036000238360E3
:101A8000C36003744374837414224261012282612F
:101A90000221C161016242628262C26202634363E7
:101AA0008363C26320220264042242648364C264AA
:101AB000036542658365C3651021016643668266DE
:101AC00002F080FD00B908BD00F0E5FCFBE700BFB7
:101AD0000C0B002400A0004008B51748174B03600A
:101AE00000238360C36003744374837414224261CF
:101AF000012282610221C161016242628262C2628C
:101B000002634FF4057141638363C2632022026460
:101B1000042242648364C264036542658365C365CD
:101B2000102101664366826602F04CFD00B908BDD3
:101B300000F0B1FCFBE700BF6C0A002400A40040E9
:101B400010B5BAB0044600213591369137913891DD
:101B50003991C02204A83AF02CFD2368474A9342E9
:101B600004D0474A934245D03AB010BD4FF40042EA
:101B70000023CDE9042304A804F06AFA48BB414AD3
:101B8000136801331360012B26D03F4BD3F8E020BC
:101B900042F00202C3F8E020D3F8E03003F0020381
:101BA0000193019B4FF44073359302233693002435
:101BB000379438940923399335A9344803F0A0F9B0
:101BC00022460521132001F0B3F9132001F0C0F9DA
:101BD000CAE700F060FCD2E72B4BD3F8EC2042F4CC
:101BE0008072C3F8EC20D3F8EC3003F480730093D8
:101BF000009BCAE74FF400420023CDE9042304A868
:101C000004F026FA48BB1F4A136801331360012B06
:101C100026D01D4BD3F8E02042F00202C3F8E020AA
:101C2000D3F8E03003F002030393039B4FF44053D7
:101C3000359302233693002437943894092339933B
:101C400035A9124803F05CF922460521142001F061
:101C50006FF9142001F07CF986E700F01CFCD2E754
:101C6000094BD3F8EC2042F48072C3F8EC20D3F88F
:101C7000EC3003F480730293029BCAE700A000409B
:101C800000A40040680A00240044025800040258DE
:101C9000F0B5B9B00023339334933593369337932B
:101CA000204B1B680BB139B0F0BD1E4B01221A60EE
:101CB000C022002102A83AF07CFC4FF08072002381
:101CC000CDE9022302A804F0C3F938BB164BD3F8C0
:101CD000D42042F48052C3F8D420D3F8D43003F493
:101CE00080530193019B4FF68873339302273497F7
:101CF00000263596032536950C24379433A90B48D6
:101D000003F0FEF84CF2B37333933497359636955F
:101D1000379433A9064803F0F3F8C4E700F0BBFB9F
:101D2000D4E700BFAC0B0024004402580010025856
:101D3000000C025870B58EB00023079308930993E6
:101D40000A930B930C930D930093019302930393C7
:101D50000493059306931A481A4A026002F58272A8
:101D600042608360C3600361102242618361C3618A
:101D700003624FF48051416283624FF48041C1623B
:101D8000036343638363C3630364022607960F25DB
:101D900008950424099401210A910B9211230C93B4
:101DA0000096019502940391049205936A4607A94F
:101DB00005F0B6F808B90EB070BD00F06CFBFAE79C
:101DC000B00B00240040005208B5FFF761FF08BDCA
:101DD00008B5A94B4FF4F072A3F8642076E1012115
:101DE000A64B186F09F088FFA54A137801331370CA
:101DF0000EE00121A14B186F0AF038FAA04A1378BF
:101E00000133137004E001219C4B186F0AF02EFA85
:101E100001219A4BD3F8B0000AF028FA964B93F8B8
:101E200037201AB1974B1B78042B17D1964B012101
:101E30001970964E914C3146E06F33F01BFB8E4D7E
:101E400095F838203146D4F8800033F013FB95F82C
:101E500039208F49D4F88C0033F00CFB864B93F873
:101E600041201AB1874B1B78042B18D1864B0121D6
:101E70001970864E814C3146D4F8900033F0FAFA4E
:101E80007D4D95F842203146D4F8940033F0F2FAB3
:101E900095F843207E49D4F8A00033F0EBFA764B56
:101EA00093F83A301BB1774B1B78042B0BD1764B50
:101EB00001221A70704B93F8442074496F4BD3F889
:101EC000980033F0D7FA6C4B93F83B301BB96D4B4D
:101ED0001B78042B0BD16C4B01221A70664B93F8C4
:101EE00045206A49654BD3F89C0033F0C3FA624B36
:101EF00093F844201AB1634B1B78042B08D1624B32
:101F00000121197061495D4BD3F8980033F0B2FAA2
:101F1000594B93F845201AB95A4B1B78042B08D11A
:101F2000594B012119705949544BD3F89C0033F097
:101F3000A1FA514C94F872205449504BD3F8A400A4
:101F400033F098FA94F873201AB94E4B1B78042B8F
:101F500008D14D4B012119704C49484BD3F8A800CA
:101F600033F088FA444B93F83730012B61D0424B61
:101F70009A8EDB8FD21A4749404BD3F8B80033F022
:101F800079FA414B1B78002B00F08C8001213B4BF0
:101F9000586F09F0B1FE3B4B1B78042B00F0888092
:101FA0000121364B586F0AF061F9334C3A4E334DEC
:101FB00022783146286933F05DFAA28E3146A86C4A
:101FC00033F058FAE28F3146286D33F053FA94F922
:101FD00046203146686B33F04DFA94F9542031466F
:101FE000A86B33F047FA94F947203146E86B33F099
:101FF00041FA94F955203146286C33F03BFAB4F895
:1020000078202649686D33F035FAB4F86420244905
:10201000E86C33F02FFA002294F87010686C2DF001
:10202000F7FA2379042B4ED8DFE803F0486B717779
:102030007D00114B93F84130012B98D10E4B93F852
:102040003A30012B93D10C4B93F84430012B8ED1B5
:10205000094B93F83B30002B89D1074B93F845305F
:10206000002B84D1044B93F87330002B7FF47FAFA7
:10207000054B00221A707AE7E0090024D882012477
:10208000FC0B0024640A0024600A002490CA0308A0
:1020900094CA030898CA03089CCA0308A4CA030880
:1020A000ACCA03080121234B586F0AF0DFF872E72E
:1020B0000121204B586F09F01FFE76E71E491D4B8A
:1020C000186B33F09DF9322006F0F3FDFFF7E2F8CC
:1020D0001A4B1870FFF75CF9194B1870194B9B7964
:1020E000002B7FF490AE184B1B780A2B7FF677AE4F
:1020F0000B3BDBB2042B7FF67CAE134B00221A7035
:1021000086E612490B4B186B33F07AF9DBE710497E
:10211000084B186B33F074F9D5E70E49054B186B73
:1021200033F06EF9CFE70C49024B186B33F068F9C6
:10213000C9E700BFD8820124B4CA0308650A002495
:10214000640A0024E0090024FC0B0024B8CA030838
:10215000BCCA0308C0CA0308C4CA030810B509E012
:102160000B4803F02FF80B4B186806F0B2FE204620
:1021700006F09FFD4FF0FF31064B186806F07AFE1F
:1021800027F028FB0446B0F1FF3FE9D12124E7E71F
:10219000140C0024040C002408B5FFF7D5FB04E060
:1021A000FEF7DAFD322006F084FD4FF0FF33012206
:1021B00011460348006806F0D7FD0028F0D1F1E78A
:1021C000000C002408B5104806F006FE0F4B1860FE
:1021D0000F4A00210F4806F011FD0F4B18600F4AFF
:1021E00000210F4806F00AFD0E4B18600E4A002130
:1021F0000E4806F003FD0E4B18600E4806F067FD12
:102200000D4B186008BD00BFA4D30308040C0024C4
:10221000FCD30308D11D0008100C0024D8D30308F8
:102220005D2100080C0C0024B4D303089921000898
:10223000080C002494D30308000C00242DE9F0437B
:102240008DB000240794089409940A940B94604B71
:10225000D3F8E02042F01002C3F8E020D3F8E020E9
:1022600002F010020192019AD3F8E02042F0040239
:10227000C3F8E020D3F8E02002F004020292029AB0
:10228000D3F8E02042F08002C3F8E020D3F8E02049
:1022900002F080020392039AD3F8E02042F0020297
:1022A000C3F8E020D3F8E02002F002020492049A7E
:1022B000D3F8E02042F00802C3F8E020D3F8E02091
:1022C00002F008020592059AD3F8E02042F00102DC
:1022D000C3F8E020D3F8E03003F001030693069B37
:1022E0003C4F22464FF44051384602F020FF702305
:1022F0000793089401250995DFF8E08007A9404677
:1023000002F0FEFD4FF440530793089509944FF0F7
:102310000309CDF8289007A9384602F0F1FD4FF4E3
:10232000004307934FF404160896099507A92A4815
:1023300002F0E6FD482307930896099507A9384659
:1023400002F0DEFDD023079308940995A7F50067F6
:1023500007A9384602F0D4FD202307930896099573
:1023600007A9384602F0CCFDCDF81C9008960995D7
:1023700007A9404602F0C4FD22460521062000F0D0
:10238000D7FD062000F0E4FD22460521072000F0DD
:10239000CFFD072000F0DCFD22460521092000F0DA
:1023A000C7FD092000F0D4FD22460521172000F0CA
:1023B000BFFD172000F0CCFD22460521282000F0AB
:1023C000B7FD282000F0C4FD0DB0BDE8F08300BFCC
:1023D00000440258000C0258000002580010025835
:1023E00008B50848084B03600323436040F6FF73B9
:1023F000C360836002F0B0FE00B908BD00F04BF886
:10240000FBE700BF140C00240048005830B585B02D
:102410000024009401940294039400F09DFD012592
:102420008DF800508DF801404FF0C04301931B23FD
:102430008DF808308DF809408DF80A4003238DF897
:102440000B308DF80C408DF80D408DF80E408DF856
:102450000F50684600F09EFD8DF801504FF010536C
:10246000019312238DF808308DF809408DF80A5039
:102470008DF80F40684600F08DFD042000F07AFDD5
:1024800005B030BD08B50368B3F1804F00D008BD7A
:1024900000F0D0FCFBE772B6FEE7000000B59DB08F
:1024A0004C22002109A83AF084F82022002101A83A
:1024B0003AF07FF8022002F08BFE00230093274BB6
:1024C0009A6942F440429A619B6903F44043009345
:1024D000234BDA6A42F00102DA62DB6A03F001039D
:1024E0000093009B1D4B9B6913F4005FFAD00923F6
:1024F00009934FF480330A9301230E93022312931E
:10250000139305221492C022159216930623179353
:1025100018930823199300231A931B9309A802F018
:1025200081FEB8B93F230193032302930023039351
:10253000082304934023059306934FF48062079287
:10254000089304210DEB010003F0C0FA20B91DB07F
:102550005DF804FBFFF79FFFFFF79DFF004802585F
:102560000004005808B5FFF751FF374B5B6913F4BF
:10257000003F13D1BFF34F8FBFF36F8F324B002259
:10258000C3F85022BFF34F8FBFF36F8F5A6942F4E5
:1025900000325A61BFF34F8FBFF36F8F2A4B5B69D5
:1025A00013F4803F27D1284B0022C3F88420BFF3C7
:1025B0004F8FD3F88040C4F34E3000E01846C4F388
:1025C000C90243F6E07303EA401343EA82731E49EB
:1025D000C1F860321346013A002BF2D1431E0028A5
:1025E000ECD1BFF34F8F4B6943F480334B61BFF3A2
:1025F0004F8FBFF36F8F00F0EFFBFFF74FFFFFF739
:102600001DFEFFF71BFA00F0E5F900F05FFA00F09D
:1026100091FA00F0C3FAFFF72DFAFFF75DFAFFF722
:1026200089FBFFF7DDFE23F0F7F808482CF034F8BB
:1026300008F05CFE39F0B6FF06F0B2FAFFF7C2FD13
:1026400006F0C0FAFEE700BF00ED00E075A6000846
:1026500000B583B00A4BD3F8F42042F00202C3F86D
:10266000F420D3F8F43003F002030193019B00221D
:102670000F216FF0010000F05BFC03B05DF804FB7C
:10268000004402580F2801D90120704710B58AB0C4
:102690000446002201461C2000F04AFC1C2000F0E9
:1026A00057FC1B4B1C601B4BD3F8E82042F0010287
:1026B000C3F8E820D3F8E83003F001030093009B4F
:1026C00001A902A803F092FB079BC3B903F06AFBC0
:1026D0000346114AA2FB03239B0C013B0F484FF01A
:1026E0008042026040F2E732C2604360002303612F
:1026F000836004F0D7FF30B101200AB010BD03F0B1
:1027000051FB4300E5E7054804F0BAFDF5E700BFDB
:102710000C0000240044025883DE1B43240C0024D8
:10272000FEE7FEE7FEE7FEE7FEE7704708B501209B
:1027300002F003FD08BD08B5022002F0FEFC08BD52
:1027400008B5082002F0F9FC08BD000008B50248F1
:1027500001F0B2FA08BD00BF740C002408B50248AD
:1027600002F03EFA08BD00BF0C0B002408B5024879
:1027700002F036FA08BD00BF6C0A002408B520201C
:1027800002F0DBFC402002F0D8FC08BD08B502488E
:1027900004F01AFE08BD00BF240C002408B54FF455
:1027A000004002F0CAFC08BD10B503460C4A0D49B2
:1027B0000D48006840B10C4800680344521A934227
:1027C00006D8094A136010BD0748084C0460F2E7B8
:1027D00039F02CFF0C2303604FF0FF30F3E700BF0C
:1027E0000000082400080000700C002498860124D2
:1027F000314AD2F8883043F47003C2F888302F4B46
:102800001B6803F00F03062B06D82C4A136823F02D
:102810000F0343F007031360294B1A6842F00102CB
:102820001A6000221A611968264A0A401A60234B6E
:102830001B6813F0080F06D0204A136823F00F031B
:1028400043F0070313601E4B00229A61DA611A629B
:102850001D4999621D49D9621D4919635A639963DB
:10286000DA6319645A64196821F4802119601A66C0
:10287000184B1B686FF30F03B3F1005F03D2164BC5
:102880000122C3F808210E4BD3F8D43013F4805F33
:1028900010D10B4BD3F8D42042F48052C3F8D4208B
:1028A0000E4A43F2D2011160D3F8D42022F48052B0
:1028B000C3F8D420704700BF00ED00E000200052B4
:1028C000004402587FEDF6EA000202020000FF0118
:1028D000800201010010005C0080005100400052A5
:1028E000054AD36843F00203D360034B5B6813F4DB
:1028F000005FFAD0704700BF0048025802681A4BC8
:102900009A4200D0704710B582B00446174BD3F8F6
:10291000F02042F00102C3F8F020D3F8F03003F0C9
:1029200001030193019B1248124B03600B23436088
:10293000402383600023C3604FF4806202614FF440
:10294000006242614FF400528261C36103624362DC
:1029500000F05CFD20B9064B63629C6302B010BDC1
:10296000FFF799FDF7E700BF00000140004402585F
:10297000740C00241000024000B587B000230193BE
:10298000029303930493059302680F4B9A4202D07B
:1029900007B05DF804FB0D4BD3F8E02042F00102D4
:1029A000C3F8E020D3F8E03003F001030093009B6C
:1029B0004FF480730193022302930123059301A92D
:1029C000034802F09DFAE3E700000140004402588A
:1029D0000000025810B59AB0002416941794189469
:1029E00019941394149415940C940D940E940F94BC
:1029F0001094119412942C22214601A839F0D9FD8B
:102A00003048314B03604460846040F22B13C36054
:102A100004614461846104F045FE00283FD14FF415
:102A20008053169316A9274804F090FF002839D147
:102A3000244804F067FE002837D100231393149331
:102A4000159313A91F4805F05FFA002830D16023C1
:102A50000C9300220D920E920F92109211921292EC
:102A60000CA9184804F0C8FE28BB00230193029368
:102A70000393049305934FF400520692079308932F
:102A80004FF0007209920A930B9301A90D4805F0CB
:102A90008BFA98B90B48FFF76FFF1AB010BDFFF71C
:102AA000FAFCBCE7FFF7F7FCC2E7FFF7F4FCC4E76A
:102AB000FFF7F1FCCBE7FFF7EEFCD6E7FFF7EBFC07
:102AC000E8E700BFEC0C00240000014008B51748FF
:102AD000174B03604FF4E133436000238360C3600E
:102AE00003610C2242618361C361036243628362BA
:102AF00005F0EDFE70B900210C4805F060FF60B9EB
:102B000000210A4805F080FF50B9084805F038FF59
:102B100048B908BDFFF7BFFCEDE7FFF7BCFCEFE7E6
:102B2000FFF7B9FCF1E7FFF7B6FCF2E7600E00240F
:102B30000010014008B51748174B03604FF4E1231C
:102B4000436000238360C36003610C2242618361A0
:102B5000C36103624362836205F0B9FE70B900216C
:102B60000C4805F02CFF60B900210A4805F04CFF25
:102B700050B9084805F004FF48B908BDFFF78BFCC1
:102B8000EDE7FFF788FCEFE7FFF785FCF1E7FFF7DC
:102B900082FCF2E7CC0D00240048004008B517483D
:102BA000174B03604FF4E123436000238360C3604D
:102BB00003610C2242618361C361036243628362E9
:102BC00005F085FE70B900210C4805F0F8FE60B9EB
:102BD00000210A4805F018FF50B9084805F0D0FE5A
:102BE00048B908BDFFF757FCEDE7FFF754FCEFE7E6
:102BF000FFF751FCF1E7FFF74EFCF2E7380D002438
:102C00000014014010B5BCB0044600213791389142
:102C100039913A913B91C02206A839F0CAFC236849
:102C2000514A934207D0514A934237D0504A934277
:102C300067D03CB010BD01220023CDE9062306A8D1
:102C400003F006FA38BB4B4BD3F8F02042F01002E9
:102C5000C3F8F020D3F8F02002F010020092009A9E
:102C6000D3F8E02042F00202C3F8E020D3F8E030CD
:102C700003F002030193019B4FF440433793022377
:102C80003893002339933A9304233B9337A93A4866
:102C900002F036F9CDE7FFF7FEFBD4E7022200236E
:102CA000CDE9062306A803F0D3F938BB314BD3F89E
:102CB000E82042F48022C3F8E820D3F8E82002F4A8
:102CC00080220292029AD3F8E02042F00202C3F876
:102CD000E020D3F8E03003F002030393039B4FF4AA
:102CE0004063379302233893002339933A930723A1
:102CF0003B9337A9204802F003F99AE7FFF7CBFB93
:102D0000D4E701220023CDE9062306A803F0A0F9A9
:102D100030BB184BD3F8F02042F02002C3F8F0206B
:102D2000D3F8F02002F020020492049AD3F8E020B5
:102D300042F00402C3F8E020D3F8E03003F00403CB
:102D40000593059BC02337930223389300233993BF
:102D50003A9307233B9337A9084802F0D1F868E774
:102D6000FFF799FBD5E700BF001001400048004085
:102D700000140140004402580004025800080258A0
:102D8000DFF838D0FFF7ACFDFFF732FD0C480D49F6
:102D90000D4A002302E0D458C4500433C4188C42B6
:102DA000F9D30A4A0A4C002301E013600432A2421C
:102DB000FBD339F041FCFFF7D5FB70470000082436
:102DC00000000024C4050024CC3F0608700900243C
:102DD00094860124FEE7000010B5032000F096F869
:102DE00002F078FD0F498B69C3F303230E4AD35CCD
:102DF00003F01F03D8408B6903F00F03D35C03F08B
:102E00001F0320FA03F3094A1360094B18600F20CF
:102E1000FFF738FC10B10124204610BD0446FFF72F
:102E200017FCF9E70044025820D4030800000024EE
:102E300004000024034B1B78034A11680B44136001
:102E4000704700BF08000024F40E0024014B1868EE
:102E5000704700BFF40E002438B50446FFF7F6FFB4
:102E60000546B4F1FF3F02D0044B1B781C44FFF72A
:102E7000EDFF401BA042FAD338BD00BF080000247C
:102E8000014B1868000C70470010005C002807DB3D
:102E900000F01F02400901239340024A42F820300B
:102EA000704700BF00E100E0002804DB0901C9B25F
:102EB000044B1954704700F00F000901C9B2024BCE
:102EC0001954704700E400E014ED00E000B500F094
:102ED0000700C0F1070CBCF1040F28BF4FF0040C31
:102EE000031D062B0FD9C31E4FF0FF3E0EFA0CF048
:102EF00021EA000199400EFA03FE22EA0E0241EA9D
:102F000002005DF804FB0023EEE700000649CB68F1
:102F100023F4E0631B041B0C000200F4E060034395
:102F2000024A1A43CA60704700ED00E00000FA054B
:102F300010B50446054BD868C0F30220FFF7C6FF62
:102F400001462046FFF7B0FF10BD00BF00ED00E0D6
:102F500008B5FFF79BFF08BDBFF35F8F044B5A6AAC
:102F600022F480325A620022C3F89420704700BFD6
:102F700000ED00E040F00100054BC3F894005A6AF0
:102F800042F480325A62BFF34F8FBFF36F8F7047A6
:102F900000ED00E04378144AC2F89830D2F8A0302F
:102FA00023F00103C2F8A0304368C2F89C30017BD3
:102FB000C37A1B0643EA0173817A43EAC143417B2A
:102FC00043EA8143817B43EA4143C17B43EA0143B6
:102FD000417A43EA0123017A43EA410301780B4332
:102FE000C2F8A030704700BF00ED00E0F0B4876D7C
:102FF0000468664E664DAC4218BFB44242D01835E4
:10300000AC423FD01835AC423CD01835AC4239D038
:103010001835AC4236D01835AC4233D01835AC42F6
:1030200030D005F55675AC422CD01835AC4229D0BD
:103030001835AC4226D01835AC4223D01835AC42F6
:1030400020D01835AC421DD01835AC421AD01835F6
:10305000AC4217D04F4DAC4214D01435AC4211D015
:103060001435AC420ED01435AC420BD01435AC4202
:1030700008D01435AC4205D01435AC4202D014351A
:10308000AC4207D1446E856E6560C46E14B1046FA6
:10309000456F656004683D4E3D4DAC4218BFB4427B
:1030A00052D01835AC424FD01835AC424CD0183500
:1030B000AC4249D01835AC4246D01835AC4243D06A
:1030C0001835AC4240D005F55675AC423CD01835A9
:1030D000AC4239D01835AC4236D01835AC4233D07A
:1030E0001835AC4230D01835AC422DD01835AC4232
:1030F0002AD01835AC4227D0264E274DAC4218BFF7
:10310000B44211D0254DAC420ED01435AC420BD098
:103110001435AC4208D01435AC4205D01435AC425D
:1031200002D01435AC4224D1C46D04F01F05012433
:10313000AC407C60046863608368402B20D00368E7
:1031400099600368DA6014E0C46D04F01F0C3F243A
:1031500004FA0CF4BC6005682C6824F480242C600C
:10316000046863608368402B05D003689960036836
:10317000DA60F0BC704703689A600368D960F8E7CA
:1031800003689A600368D960F3E700BF100002404B
:1031900028000240085402581C5402583054025867
:1031A00003682749274A934218BF8B422FD0183211
:1031B00093422CD01832934229D01832934226D011
:1031C0001832934223D01832934220D018329342BF
:1031D0001DD002F55672934219D01832934216D080
:1031E0001832934213D01832934210D018329342BF
:1031F0000DD0183293420AD01832934207D01832B9
:10320000934204D023F0FF038365806D704710B4B0
:10321000D9B210390C4AA2FB0142C2F302120B4C84
:10322000A25CC2655F2907D96FF309030433836584
:10323000806D5DF8044B70476FF309038365F7E712
:103240001000024028000240ABAAAAAA30D403080A
:1032500083699BB9836A012B0AD0022B02D00BB180
:1032600000207047C36A13F0807F2AD10020704786
:10327000C36AB3F1C07F26D000207047B3F5005F6A
:103280000AD0836A022B26D9032B26D1C36A13F0F6
:10329000807F24D100207047836A032B03D8DFE8A6
:1032A00003F01404140A00207047C36A13F0807FEF
:1032B0000DD100207047C36AB3F1C07F09D0002050
:1032C000704701207047012070470120704701209E
:1032D000704701207047012070470020704701208F
:1032E0007047000003682149214A934218BF8B426E
:1032F00027D01432934224D01432934221D0143276
:1033000093421ED0143293421BD01432934218D0F1
:103310001432934215D0DAB2103A1649A1FB0212C8
:10332000120915491944A8291ED9144B13449B00AE
:103330000366134B436602F01F020123934083662A
:103340007047DBB2083B0F4AA2FB03230E4A02EB95
:103350001312920002660D4A4266C3F3041301225F
:1033600002FA03F3836670470832DEE70854025816
:103370001C540258ABAAAAAAF0FBFDBF00820010A1
:1033800080080240CDCCCCCC009600168058025864
:1033900001794A1E072A2BD830B40368154D164C04
:1033A000A34218BFAB4218D01434A34215D0143432
:1033B000A34212D01434A3420FD01434A3420CD031
:1033C0001434A34209D01434A34206D00B4B0B444F
:1033D0009B00C3660A4B036705E00A4B0B449B0046
:1033E000C366094B036701239340436730BC7047B2
:1033F000704700BF085402581C5402583F82001006
:10340000400902403F9600164059025870B50446E4
:10341000FFF71CFD002C00F0B981054623685349D5
:10342000534A934218BF8B420CBF0121002150D058
:10343000183293424DD0183293424AD018329342F8
:1034400047D01832934244D01832934241D01832B8
:1034500093423ED002F5567293423AD018329342CC
:1034600037D01832934234D01832934231D01832C8
:1034700093422ED0183293422BD01832934228D048
:103480001832934225D03B493B4A934218BF8B42A6
:1034900000F03481394A934200F030811432934273
:1034A00000F02C811432934200F0288114329342B0
:1034B00000F024811432934200F0208114329342B0
:1034C00000F01C8140236365032384F8353001201C
:1034D0004AE0022284F83520002284F8342079BBA7
:1034E000274A93422CD01832934229D01832934263
:1034F00026D01832934223D01832934220D018326B
:1035000093421DD002F55672934219D0183293425D
:1035100016D01832934213D01832934210D018327A
:1035200093420DD0183293420AD01832934207D0FA
:103530001832934204D01A6822F001021A6003E0A4
:103540001A6822F001021A6023681A6812F0010F4B
:1035500018D0FFF77BFC431B052BF5D920236365AF
:10356000032384F83530012070BD00BF10000240F5
:1035700028000240085402581C5402583054025883
:10358000400002401A6882491140A268E068024384
:103590002069024360690243A0690243E069024373
:1035A000206A02430A43616A042900F0988079493D
:1035B00009686FF30F01B1F1005F10D361682E2924
:1035C00040F2928052290AD83F2908D33F397248E5
:1035D00020FA01F111F0010F01D042F480121A60BB
:1035E0002668756925F00705636A1D43042B08D119
:1035F000A36A1D43E36A23B12046FFF729FE002892
:1036000076D175612046FFF7CBFDE36D03F01F0215
:103610003F239340836023686049614A934218BF07
:103620008B4242D0183293423FD0183293423CD062
:103630001832934239D01832934236D0183293421E
:1036400033D01832934230D002F5567293422CD0C8
:103650001832934229D01832934226D0183293421E
:1036600023D01832934220D0183293421DD0183202
:1036700093421AD01832934217D04A4A934214D038
:103680001432934211D0143293420ED0143293422A
:103690000BD01432934208D01432934205D0143226
:1036A000934202D01432934213D12046FFF71AFE00
:1036B000A368802B5DD0236E22791A60636EA26EA0
:1036C0005A606368013B072B56D90023E3662367E2
:1036D000636700206065012384F8353044E7E16AC0
:1036E000206B01430A4362E72929FFF478AF74E7AE
:1036F00040236365012084F8350035E7022284F811
:103700003520002284F8342019686FF31011A26864
:10371000402A2CD0802A27D00022E06842EAD0023A
:10372000206942EAD002606942EAD002A06942EA16
:10373000D002E06942EAD002206A42EA10120A434B
:103740001A602268184B1344184AA2FB03231B0972
:103750009B00E3652046FFF723FDE26D02F01F01A9
:1037600001228A40426056E74FF48042D5E710229A
:10377000D3E7002363609EE72046FFF709FEE36E70
:1037800000221A60236F626F5A60A2E70120EBE605
:103790003F8010FE0010005C0F030F00100002407D
:1037A0002800024008540258F8ABFDA7CDCCCCCC81
:1037B000002800F03E8170B5044690F834000128DE
:1037C00000F03981012084F8340094F83500C0B24B
:1037D000012807D04FF400636365002384F8343078
:1037E000012070BD022084F835000020606520684B
:1037F000924E934DA84218BFB0422FD01835A84220
:103800002CD01835A84229D01835A84226D0183512
:10381000A84223D01835A84220D01835A8421DD080
:1038200005F55675A84219D01835A84216D0183596
:10383000A84213D01835A84210D01835A8420DD090
:103840001835A8420AD01835A84207D01835A84222
:1038500004D0056825F00105056003E0056825F042
:10386000010505602046FFF7C1FB23687349744AD0
:10387000934218BF8B4238D01832934235D0183259
:10388000934232D0183293422FD0183293422CD028
:103890001832934229D01832934226D002F556723C
:1038A000934222D0183293421FD0183293421CD038
:1038B0001832934219D01832934216D018329342DC
:1038C00013D01832934210D0183293420DD01A6898
:1038D00022F00E0242F00A021A60236C93B12268B1
:1038E000136843F0040313600CE01A6822F01E0210
:1038F00042F016021A60236C23B12268136843F069
:103900000803136023684D494D4A934218BF8B4208
:1039100042D0183293423FD0183293423CD01832F2
:10392000934239D01832934236D01832934233D072
:103930001832934230D002F5567293422CD018328E
:10394000934229D01832934226D01832934223D082
:103950001832934220D0183293421DD0183293422D
:103960001AD01832934217D0364A934214D01432E8
:10397000934211D0143293420ED0143293420BD0A2
:103980001432934208D01432934205D01432934239
:1039900002D0143293420ED1236E1A6812F4803F83
:1039A00003D01A6842F480721A60E36E1BB11A6881
:1039B00042F480721A6023682049214A934218BF5A
:1039C0008B4230D0183293422DD0183293422AD0F5
:1039D0001832934227D01832934224D0183293429F
:1039E00021D0183293421ED002F5567293421AD05B
:1039F0001832934217D01832934214D0183293429F
:103A000011D0183293420ED0183293420BD0183294
:103A1000934208D01832934205D01A6842F001024E
:103A20001A600020DDE61A6842F001021A600020E8
:103A3000D7E6012070470220D3E600BF1000024005
:103A40002800024008540258002800F0288108B5D8
:103A5000024690F83530DBB2022B03D08023436559
:103A6000012008BD0368904890498B4218BF8342EB
:103A70000CBF0120002065D018318B4262D0183174
:103A80008B425FD018318B425CD018318B4259D0B9
:103A900018318B4256D018318B4253D001F55671F4
:103AA0008B424FD018318B424CD018318B4249D0C9
:103AB00018318B4246D018318B4243D018318B429B
:103AC00040D018318B423DD018318B423AD0196822
:103AD00021F00E0119601368734874498B4218BFB6
:103AE00083426AD072498B4267D018318B4264D0CE
:103AF00018318B4261D018318B425ED018318B4225
:103B00005BD018318B4258D001F556718B4254D09E
:103B100018318B4251D018318B424ED018318B4224
:103B20004BD018318B4248D018318B4245D01831D8
:103B30008B4242D018318B423FD0196821F00101ED
:103B400019603EE0042182F8351080BB584A934248
:103B50002DD0183293422AD01832934227D01832EF
:103B6000934224D01832934221D0183293421ED06F
:103B700002F5567293421AD01832934217D0183277
:103B8000934214D01832934211D0183293420ED07F
:103B9000183293420BD01832934208D01832934215
:103BA00005D01A6822F001021A60002059E71A684D
:103BB00022F001021A60002053E7196821F0010188
:103BC00019601368384839498B4218BF834242D084
:103BD00018318B423FD018318B423CD018318B4288
:103BE00039D018318B4236D018318B4233D018314E
:103BF0008B4230D001F556718B422CD018318B425C
:103C000029D018318B4226D018318B4223D018315D
:103C10008B4220D018318B421DD018318B421AD0E4
:103C200018318B4217D023498B4214D014318B4268
:103C300011D014318B420ED014318B420BD0143181
:103C40008B4208D014318B4205D014318B4202D004
:103C500014318B4217D1116E0B6823F480730B6003
:103C6000906DD36D03F01F0101238B404360536EB1
:103C7000916E5960D36E33B1196821F48071196067
:103C8000136F516F5960012382F83530002382F899
:103C90003430136D2BB1104698470020E1E6012027
:103CA00070470020DDE600BF1000024028000240FF
:103CB0004000024008540258F0B583B00446002387
:103CC00001937D4B1D687D4BA3FB0535AD0A876DC8
:103CD0003E68D7F800C0036879497A48834218BF24
:103CE0008B420CBF0120002061D0774A93425ED006
:103CF000183293425BD01832934258D01832934214
:103D000055D01832934252D0183293424FD002F518
:103D1000567293424BD01832934248D01832934295
:103D200045D01832934242D0183293423FD01832D5
:103D300093423CD01832934239D01832934236D055
:103D40006249634A934218BF8B4212D0614A934240
:103D50000FD0143293420CD01432934209D0143253
:103D6000934206D01432934203D01432934240F06F
:103D700061821A68E16D01F01F010420884010EA99
:103D80000C0F00F0A78212F0040F00F0A3827860FD
:103D900012F4004F00F05A8212F4803F40F050823B
:103DA000A36C002B00F046822046984742E2E26D69
:103DB00002F01F0108228A40324241D070BB424AC1
:103DC00093422BD01832934228D01832934225D0F8
:103DD0001832934222D0183293421FD018329342A5
:103DE0001CD002F55672934218D01832934215D067
:103DF0001832934212D0183293420FD018329342A5
:103E00000CD01832934209D01832934206D018329F
:103E1000934203D01A68C2F3C00202E01A68C2F3E8
:103E200080026AB11A6822F004021A60E36D03F09E
:103E30001F0208239340BB60636D43F00103636579
:103E4000E26D02F01F0226FA02F313F0010F47D0D1
:103E500023681B481B498B4218BF83423CD0183152
:103E60008B4239D018318B4236D018318B4233D047
:103E700018318B4230D018318B422DD018318B4203
:103E80002AD001F556718B4226D018318B4223D0AF
:103E900018318B4220D018318B421DD018318B4203
:103EA0001AD018318B4217D018318B4214D01831E8
:103EB0008B4211D01B6813E004000024B5814E1B17
:103EC00010000240280002404000024008540258FE
:103ED0001C540258305402585B6913F0800F3BD1D8
:103EE000E36D03F01F03042202FA03F333423FD0D1
:103EF0002268964896498A4218BF824234D01831C7
:103F00008A4231D018318A422ED018318A422BD0C1
:103F100018318A4228D018318A4225D018318A4275
:103F200022D001F556718A421ED018318A421BD028
:103F300018318A4218D018318A4215D018318A4275
:103F400012D018318A420FD018318A420CD0183161
:103F50008A4209D013680BE001239340BB60636D74
:103F600043F002036365BBE7126812F0020F3DD114
:103F7000E36D03F01F03102202FA03F333425FD014
:103F80002268724872498A4218BF824234D018317E
:103F90008A4231D018318A422ED018318A422BD031
:103FA00018318A4228D018318A4225D018318A42E5
:103FB00022D001F556718A421ED018318A421BD098
:103FC00018318A4218D018318A4215D018318A42E5
:103FD00012D018318A420FD018318A420CD01831D1
:103FE0008A4209D01268C2F3800208E0BB60636DA8
:103FF00043F004036365BBE71268C2F3C002FAB181
:10400000BB6023681A6812F4802F0DD01B6813F46C
:10401000002F04D1236C9BB12046984710E0A36C7D
:1040200073B1204698470BE01A6812F4807F03D1E1
:104030001A6822F008021A60236C0BB120469847D8
:10404000E36D03F01F03202202FA03F3334200F072
:10405000938022683D483E498A4218BF82422ED052
:1040600018318A422BD018318A4228D018318A421E
:1040700025D018318A4222D018318A421FD01831F7
:104080008A421CD001F556718A4218D018318A42F2
:1040900015D018318A4212D018318A420FD0183107
:1040A0008A420CD018318A4209D018318A4206D08F
:1040B00018318A4203D01268C2F3400202E012684B
:1040C000C2F30012002A57D0BB6094F83530DBB23F
:1040D000042B0ED023681A6812F4802F3AD01B6884
:1040E00013F4002F2DD1636C002B45D02046984748
:1040F00042E02268136823F01603136022685369B4
:1041000023F080035361236CBBB12268136823F052
:1041100008031360E36D03F01F023F239340BB606D
:10412000012384F83530002384F83430236D002BCC
:1041300000F08080204698477CE0A36C002BE4D1FF
:10414000E8E7E36BC3B12046984715E01000024052
:10415000280002401A6812F4807F09D11A6822F000
:1041600010021A60012384F83530002384F83430BB
:10417000E36B0BB120469847636D002B5AD0636DFB
:1041800013F0010F52D0042384F835302368964988
:10419000964A934218BF8B422FD0183293422CD0AC
:1041A0001832934229D01832934226D018329342C3
:1041B00023D01832934220D0183293421DD002F5FA
:1041C0005672934219D01832934216D01832934245
:1041D00013D01832934210D0183293420DD01832B7
:1041E00093420AD01832934207D01832934204D037
:1041F0001A6822F001021A6003E01A6822F0010234
:104200001A60019B01330193AB4204D823681B68F9
:1042100013F0010FF5D123681B6813F0010F0BD0C9
:10422000032384F83530002384F83430E36C0BB179
:104230002046984703B0F0BD012384F83530F2E7FB
:10424000236C002BF6D020469847F3E712F0200F9E
:104250003AD123686449654A934218BF8B422FD0F4
:10426000183293422CD01832934229D018329342FC
:1042700026D01832934223D01832934220D01832DD
:1042800093421DD002F55672934219D018329342D0
:1042900016D01832934213D01832934210D01832ED
:1042A00093420DD0183293420AD01832934207D06D
:1042B0001832934204D01A6822F004021A6003E014
:1042C0001A6822F008021A60236C002BB2D0204634
:1042D0009847AFE70220884010EA0C0F60D012F038
:1042E000020F5DD0786012F4004F0ED012F4803FC0
:1042F00005D1636C002B9DD0204698479AE7E36B6D
:10430000002B97D02046984794E712F0200F40D119
:1043100023683549354A934218BF8B422FD0183253
:1043200093422CD01832934229D01832934226D08F
:104330001832934223D01832934220D0183293423D
:104340001DD002F55672934219D01832934216D0FE
:104350001832934213D01832934210D0183293423D
:104360000DD0183293420AD01832934207D0183237
:10437000934204D01A6822F00A021A6003E01A6815
:1043800022F014021A60012384F83530002384F8E7
:104390003430E36B002B3FF44DAF2046984749E79C
:1043A000082000FA01F111EA0C0F3FF443AF12F0BC
:1043B000080F3FF43FAF1A6822F00E021A60E36D57
:1043C00003F01F03012202FA03F37B60626584F8A5
:1043D0003520002384F83430E36C002B3FF42AAFFF
:1043E0002046984726E700BF100002402800024000
:1043F00030B4416B0468D4F884306F4A134043EA08
:104400008103C4F884300468D4F8843023F47F0333
:10441000856B43EA0543C4F88430836B0B4404681E
:10442000D4F88810114041EA8301C4F88810046868
:10443000D4F8881021F4FE01C56B41EA0541C4F8A7
:104440008810C16B03EB41030468D4F8A01011403D
:1044500041EA8301C4F8A0100468D4F8A01021F444
:10446000FE01056C41EA0541C4F8A010016C446CE2
:1044700004FB01330468D4F8B010114041EA830111
:10448000C4F8B0100468D4F8B01021F4FE01856CB3
:1044900041EA0541C4F8B010816CC46C04FB0133DF
:1044A0000468D4F8AC10114041EA8301C4F8AC10A0
:1044B000016D446D04FB01330468D4F8F010114021
:1044C00041EA8301C4F8F0100468D4F8F01021F434
:1044D0007C11856D41EA0541C4F8F010816D03EB54
:1044E00041030468D4F8C0100A4042EA8303C4F8C8
:1044F000C0300268D2F8C03023F47C13C16D43EAA7
:104500000143C2F8C0300268D2F8C03023F07C53B7
:10451000016E43EA0163C2F8C030436B274A1A4474
:104520009200C266836B02EB83030367C16B03EBEC
:10453000C1034367016C446C04FB01F103EB81038D
:104540008367816CC46C04FB01F103EB8103C367D7
:10455000016D446D04FB01F103EB8103C0F8803071
:10456000816D03EBC103C0F88430816EC46D01FB23
:1045700004FC03EB8C03C0F88830046E04FB01F1EB
:1045800003EB8103C0F890300D498B420DD9D0F870
:104590009C3043F02003C0F89C30032380F898300F
:1045A000012007E0002342F8043BD0F8903093420A
:1045B000F8D8002030BC70470300FFFF002B00102C
:1045C000FCD3004030B595B004464C22A04901A868
:1045D00038F058F8002C00F0388123689D4A934247
:1045E00020D094F898300BB32268936923F010031D
:1045F0009361FEF72BFC054623689A6912F0080FB9
:104600001AD0FEF723FC431B0A2BF5D9D4F89C30B3
:1046100043F00103C4F89C30032384F89830012050
:1046200015B030BD03F580736360DAE784F8993024
:104630002046FDF785FAD7E79A6942F001029A61B0
:10464000FEF704FC054623689A6912F0010F0FD1AA
:10465000FEF7FCFB401B0A28F5D9D4F89C3043F048
:104660000103C4F89C30032384F898300120D7E775
:104670009A6942F002029A61237C012B40D02268A1
:10468000936943F040039361637C012B3ED0226821
:10469000936923F480439361A37C012B3CD022686F
:1046A000936943F4805393612268936923F44073C0
:1046B000A1680B4393612268936923F0A40393617B
:1046C0002268136923F010031361E368012B29D0DA
:1046D000002B2CD0022B00F09B802268936943F0C2
:1046E000800393612268136943F010031361E36848
:1046F000032B1CD12268936943F02003936116E0D9
:104700002268936923F040039361BDE722689369AF
:1047100043F480439361BFE72268936923F4805395
:104720009361C1E72268936943F004039361A3692D
:104730005A1EE369013B1B0243EA4263226A013AC3
:1047400013436269013A216843EA0243CB61A368DB
:10475000B3F5407F62D0236E33B12268D2F8C03007
:10476000616E0B43C2F8C030E36D226ED3420DD0B0
:104770002168D1F8C83023F00703A26E14A800EB1B
:10478000820252F84C2C1343C1F8C830236C6BB131
:104790002168D1F8BC3023F00703626C14A800EB49
:1047A000820252F84C2C1343C1F8BC30A36C73B195
:1047B0002168D1F8BC3023F07003E26C14A800EB40
:1047C000820252F84C2C43EA0213C1F8BC30236D2C
:1047D00073B12168D1F8BC3023F4E063626D14A892
:1047E00000EB820252F84C2C43EA0223C1F8BC30A1
:1047F0002268184B9A4222D00023C4F89430C4F89F
:104800009C30012384F898302046FFF7F1FD07E73C
:104810002268936943F02003936188E7A36A013B10
:10482000E26A013A43EA0223226B013A43EA0213A5
:10483000626A013A216843EA0243CB608BE762680F
:10484000936823F003039360D6E70120E8E600BFF6
:104850001CCA030800A0004090F89830013BDBB26E
:10486000012B07D9D0F89C3043F00203C0F89C30EC
:10487000012070470B68DBB9CB68072B0ED08A6824
:10488000DB0643EA82730A6943EA02434A69134337
:10489000C26E496842F82130002070470A69CB692E
:1048A0001B0243EA02438A69134343F06053EFE774
:1048B00010B4CA680B6943EA4273072A0FD04A69E9
:1048C0008C6842EA8472006F496800EBC10C40F8C2
:1048D0003130CCF8042000205DF8044B70478A6921
:1048E000F1E790F898C05FFA8CFCBCF1010F07D09B
:1048F000D0F89C3043F00403C0F89C30012070478E
:10490000920042EA011242EA43030168009A1A4304
:10491000C1F880200020704790F89830DBB2012B5E
:1049200007D0D0F89C3043F00403C0F89C3001203D
:104930007047022380F898300268936923F00103DE
:1049400093610023C0F89C301846704790F898C0D7
:104950005FFA8CFCBCF1020F40F0DF8070B540299B
:104960000CD041293DD0046D8C426DD8D0F89C30DC
:1049700043F02003C0F89C300120C1E00468D4F863
:10498000A05015F4FE0F0CD0D4F8A45015F07F0FF2
:104990000FD1D0F89C3043F48073C0F89C300120D4
:1049A000AEE0D0F89C3043F02003C0F89C300120EA
:1049B000A6E0D4F8A46016F0807604D0D4F8A05015
:1049C000002D0CDB0026D4F8A440C4F305242644B3
:1049D000456F446C06FB04F405EB840E3BE00126B6
:1049E000F1E70468D4F8B05015F4FE0F0CD0D4F8F9
:1049F000B45015F07F0F0FD1D0F89C3043F4807382
:104A0000C0F89C3001207BE0D0F89C3043F02003BC
:104A1000C0F89C30012073E0D4F8B46016F08076C2
:104A200004D0D4F8B050002D0CDB0026D4F8B440EC
:104A3000C4F305242644856FC46C06FB04F405EB1F
:104A4000840E08E00126F1E7C56F446D01FB04F414
:104A500005EB840E0026DEF8004004F0804454602C
:104A600064BBDEF80040C4F38A441460DEF8004002
:104A700004F000549460DEF8004004F00044146137
:104A8000BEF80440D461BEF8064004F00F04D460C0
:104A9000DEF8044004F480145461DEF8044004F4A9
:104AA000001494619EF8074004F07F041462DEF85D
:104AB0000440E40F54624FF0000C0CE0DEF80040BC
:104AC00024F060441460D1E70EEB0C04247A03F860
:104AD0000C400CF1010CD468144D2C5D6445F3D8E6
:104AE000402909D041290CD01F290ED80268012382
:104AF0008B40C2F8983002E00368C3F8A860002039
:104B000070BD0368C3F8B860F9E701F01F010268DF
:104B100001238B40C2F89C30F1E7D0F89C3043F081
:104B20000803C0F89C300120704700BF38D4030848
:104B300090F89830013BDBB2012B07D9D0F89C30BC
:104B400043F00203C0F89C300120704710B40368A2
:104B50009C6D0C4224D1DC6D44F00104DC6511F441
:104B6000007F05D00468D4F8E0301343C4F8E03087
:104B700011F4806F05D00468D4F8E4301343C4F80E
:104B8000E4300068436D0C4A0A40134343650B4A06
:104B9000536943EA9173536100205DF8044B7047F9
:104BA0009C6D31EA040402D00324DC65D7E7DC6D98
:104BB00044F00204DC65D2E7FFFFCF3F00A80040CD
:104BC000704770477047704770477047704770472D
:104BD000704770477047704770477047704770471D
:104BE0002DE9F04F83B00446904B1A695B6913407E
:104BF00001939B07009303681A6D02F4704A5A6D83
:104C00000AEA020A1A6D02F00F095A6D09EA02094E
:104C10001A6D02F0F0085A6D08EA02081E6D06F0DF
:104C200071565A6D16401F6D07F060775A6D174028
:104C30005D6DD3F850B015F4807F02D01BF4807FF7
:104C400064D115F4806F02D01BF4806F67D1009B94
:104C5000002B74D1BAF1000F7ED1B9F1000F40F0F2
:104C60008780B8F1000F40F08F8015F4006F03D0FB
:104C70001BF4006F40F0948015F4007F03D01BF408
:104C8000007F40F0988015F4002F03D01BF4002F14
:104C900040F0A18015F4803F03D01BF4803F40F02A
:104CA000A58015F4802F03D01BF4802F40F0A9803D
:104CB00015F4003F0FD01BF4003F0CD023684FF4D5
:104CC00000321A65594B00221A61D4F89C3043F027
:104CD0008003C4F89C30002F40F09E804EB12368C2
:104CE0001E65B20F514B1A61D4F89C303343C4F89F
:104CF0009C3022684E4B9A4200F09C80D4F89C3045
:104D0000002B40F0F98003B0BDE8F08F4FF48072C3
:104D10001A65464B00221A61FFF75BFF91E7236893
:104D2000D3F8DC10D3F8E4204FF4806018653F4BD3
:104D30000020186111402046FFF747FF87E72368EE
:104D400000221A65019B03F00303384A136100999E
:104D50002046FFF735FF7DE72368C3F850A04FEAF0
:104D60009A72324B1A6151462046FFF72AFF74E7C8
:104D70002368C3F850904FEA99722C4B1A61494648
:104D80002046FCF71DFE6CE72368C3F850804FEA0D
:104D90009872264B1A6141462046FFF713FF64E7DD
:104DA00023684FF400621A65204B00221A612046E6
:104DB000FFF709FF60E72368D3F8D810D3F8E020A5
:104DC0004FF400701865194B0020186111402046FF
:104DD000FFF7FAFE57E723684FF400221A65134BDA
:104DE00000221A612046FFF7F1FE53E723684FF4D3
:104DF00080321A650D4B00221A612046FFF7E7FE4C
:104E00004FE723684FF480221A65084B00221A618D
:104E10002046FFF7DDFE4BE723681F65BA0F034B03
:104E20001A6139462046FFF7D6FE57E700A8004032
:104E300000A0004063689A6812F0030F3FF45EAF71
:104E4000196A01F00F015A6A186A00F03008586AAE
:104E500008EA00081F6A07F4C077586A07401E6A0C
:104E600006F4FC46586A06401D6A05F4F025586AA7
:104E70000540D3F82490D3F820A011401CD1B8F1FC
:104E8000000F1ED119F0400F02D01AF0400F20D1B0
:104E90005FBB36B163681E62D4F89C303343C4F8FC
:104EA0009C30002D3FF42AAF63681D62D4F89C301B
:104EB0002B43C4F89C3021E719622046FFF78CFE93
:104EC000DDE76368C3F8208041462046FFF785FE92
:104ED000D8E76368D96BDA6B4020186202F03F02B2
:104EE000090C2046FFF77AFED2E763681F62394655
:104EF0002046FFF774FECCE72046FFF76BFE02E783
:104F0000F0B583B000236BE085685E000324B440F5
:104F100025EA0405CC68B4402C438460456825EA42
:104F20000C054C68C4F300149C402C43446069E0B9
:104F3000DD08083550F8254003F0070C4FEA8C0CCB
:104F40004FF00F0E0EFA0CFE24EA0E0E0C6904FA56
:104F50000CF444EA0E0440F825406BE0092400E01C
:104F6000002404FA0EF42C430CF1020C694D45F8B0
:104F70002C404FF0B0442568D44325EA02064F6820
:104F800017F4801F01D042EA05064FF0B0452E60AD
:104F90006D6804EA05064F6817F4001F01D042EA65
:104FA00005064FF0B0456E60D5F8845004EA05065A
:104FB0004F6817F4003F01D042EA05064FF0B045B4
:104FC000C5F88460D5F880502C404E6816F4803FB8
:104FD00001D042EA05044FF0B042C2F880400133EC
:104FE0000A6832FA03F400F092804FF0010C0CFAD8
:104FF00003FC1CEA0202F2D04C6804F00304013CFA
:10500000012C81D94C6804F00304032C0CD0C46833
:105010005D004FF0030C0CFA05FC24EA0C0C8C68C4
:10502000AC4044EA0C04C4604C6804F00304022C55
:105030003FF47EAF04684FEA430E4FF0030C0CFAC6
:105040000EFC24EA0C0C4C6804F0030404FA0EF481
:1050500044EA0C0404604C6814F4403FBFD02E4C6A
:10506000D4F8F45045F00205C4F8F450D4F8F440F4
:1050700004F002040194019C4FEA930C0CF1020528
:10508000244C54F8255003F0030E4FEA8E0E0F24E3
:1050900004FA0EF425EA0405204CA0423FF460AF68
:1050A00004F58064A04222D004F58064A04220D0A0
:1050B00004F58064A0421ED004F58064A0421CD098
:1050C00004F58064A0421AD004F58064A04218D090
:1050D00004F58064A04216D004F58064A04214D088
:1050E00004F58064A0423FF439AF0A2439E7012473
:1050F00037E7022435E7032433E7042431E70524A6
:105100002FE706242DE707242BE7082429E703B01F
:10511000F0BD00BF000400580044025800000258CF
:105120000369194201D001207047002070470AB17D
:105130008161704709048161704708B54FF0B04341
:10514000D3F88830034200D108BD4FF0B043C3F814
:105150008800FCF74FF9F7E7002831D038B504464E
:1051600003684CF6CC421A60036845F255521A6047
:10517000036842685A60036882689A60FDF766FEB9
:1051800005462368DA6812F0070F0DD0FDF75EFEC2
:10519000401B41F601039842F3D92368DB6813F002
:1051A000070FEED0032005E01969E268914202D0B2
:1051B0001A61002038BD4AF6AA221A600020F9E7D9
:1051C0000120704703684AF6AA221A60002070473F
:1051D000134BDB6813F0040F07D1114BDB6803F0AE
:1051E000070383421AD00120704710B50C4AD368D8
:1051F00023F007030343D360FDF728FE0446084B62
:105200005B6813F4005F07D1FDF720FE001BB0F5CB
:105210007A7FF4D9012000E0002010BD0020704703
:1052200000480258002800F0398338B50446036866
:1052300013F0010F25D0944A136903F03803926AE2
:10524000102B15D0182B0FD06368B3F5803F3FD0DB
:10525000002B53D18C4B1A6822F480321A601A68E2
:1052600022F480221A6038E002F00302022AEBD115
:10527000854B1B6813F4003F03D06368002B00F0DC
:105280000F83236813F0020F00F0A1807E4A136998
:10529000926A13F038035AD0182B55D0E368002BCC
:1052A00000F0DE8078490A6822F0190213430B608F
:1052B000FDF7CCFD0546744B1B6813F0040F40F05E
:1052C000AD80FDF7C3FD401B0228F4D90320EEE2B8
:1052D0006D4A136843F48033136063682BB3FDF7A2
:1052E000B5FD0546684B1B6813F4003FC9D1FDF7B7
:1052F000ADFD401B6428F5D90320D8E2B3F5A02FFB
:1053000009D0614B1A6822F480321A601A6822F4BC
:1053100080221A60E1E75C4B1A6842F480221A602E
:105320001A6842F480321A60D7E7FDF78FFD054610
:10533000554B1B6813F4003FA3D0FDF787FD401BBE
:105340006428F5D90320B2E212F0030FA6D14E4B28
:105350001B6813F0040F03D0E368002B00F0A28257
:10536000494A136823F01903E1680B431360FDF702
:105370006DFD0546444B1B6813F0040F06D1FDF785
:1053800065FD401B0228F5D9032090E2FDF778FD6A
:1053900041F20303984212D82269402A07D03A49C1
:1053A0004B6823F47C3343EA02334B600FE0364A08
:1053B000536823F47C3343F40033536007E0324AEC
:1053C000536823F0FE43216943EA01635360236875
:1053D00013F0100F00F088802B4A136903F0380394
:1053E000926A082B56D0182B50D0E369002B00F09E
:1053F000B880254A136843F080031360FDF726FD4B
:105400000546214B1B6813F4807F40F08880FDF730
:105410001DFD401B0228F4D9032048E2FDF730FDB2
:1054200041F20303984212D82269402A07D0164954
:105430004B6823F47C3343EA02334B60C7E7124ADC
:10544000536823F47C3343F400335360BFE70E4AC0
:10545000536823F0FE43216943EA01635360B6E7D2
:10546000094A136823F001031360FDF7EFFC0546BA
:10547000054B1B6813F0040FA9D0FDF7E7FC401B98
:105480000228F5D9032012E20044025802F0030278
:10549000012AAAD1A14B1B6813F4807F03D0E369D2
:1054A000802B40F00182FDF7EBFC41F203039842B0
:1054B00012D8226A202A07D098494B6823F0F84373
:1054C00043EA82634B600FE0944A536823F0F84349
:1054D00043F08043536007E0904AD36823F07C5345
:1054E000216A43EA0163D360236813F0080F60D098
:1054F0006369002B49D0894A536F43F00103536716
:10550000FDF7A4FC0546854B5B6F13F0020F50D1ED
:10551000FDF79CFC401B0228F5D90320C7E1FDF7ED
:10552000AFFC41F20303984212D8226A202A07D026
:105530007A494B6823F0F84343EA82634B60D3E730
:10554000764A536823F0F84343F080435360CBE737
:10555000724AD36823F07C53216A43EA0163D36023
:10556000C2E76E4A136823F080031360FDF76EFCF8
:1055700005466A4B1B6813F4807FB5D0FDF766FCC7
:10558000401B0228F5D9032091E1644A536F23F0B0
:1055900001035367FDF75AFC0546604B5B6F13F040
:1055A000020F06D0FDF752FC401B0228F5D903205C
:1055B0007DE1236813F0200F29D0A3699BB1574ADE
:1055C000136843F480531360FDF740FC0546534BCA
:1055D0001B6813F4005F1AD1FDF738FC401B02284A
:1055E000F5D9032063E14D4A136823F48053136017
:1055F000FDF72CFC0546494B1B6813F4005F06D0F1
:10560000FDF724FC401B0228F5D903204FE1236855
:1056100013F0040F21D1636A002B00F047813F4A49
:10562000126902F03802182A00F0EE80022B79D0BD
:105630003A4A136823F080731360FDF707FC0446B1
:10564000364B1B6813F0007F00F0DC80FDF7FEFB9B
:10565000001B0228F4D9032029E1314A136843F4DE
:1056600080731360FDF7F2FB05462D4B1B6813F4A6
:10567000807F06D1FDF7EAFB401B6428F5D90320A3
:1056800015E1A368012B0AD00BBB244B1A6F22F043
:1056900001021A671A6F22F004021A6704E01F4A17
:1056A000136F43F001031367A36833B3FDF7CEFB19
:1056B00005461A4B1B6F13F0020FACD1FDF7C6FB6A
:1056C000401B41F288339842F3D90320EFE0052BC9
:1056D00009D0124B1A6F22F001021A671A6F22F0DA
:1056E00004021A67E0E70D4B1A6F42F004021A67D2
:1056F0001A6F42F001021A67D6E7FDF7A7FB0546CD
:10570000064B1B6F13F0020F85D0FDF79FFB401B6C
:1057100041F288339842F3D90320C8E0004402588C
:1057200000480258694A136823F080731360FDF73C
:105730008DFB0546654B1B6813F0007F06D0FDF717
:1057400085FB401B0228F5D90320B0E05F4B996A26
:105750005F4A0A40A16AE06A41EA00110A439A627C
:10576000226B013AC2F30802616B0139490289B226
:105770000A43A16B0139090401F4FE010A43E16BFC
:105780000139090601F0FE410A431A63DA6A22F080
:105790000102DA625A6B6FF3CF02A16C42EAC102D6
:1057A0005A63DA6A22F00C02216C0A43DA62DA6A7E
:1057B00022F00202616C0A43DA62DA6A42F4803251
:1057C000DA62DA6A42F40032DA62DA6A42F4802299
:1057D000DA62DA6A42F00102DA621A6842F0807232
:1057E0001A60FDF733FB0446384B1B6813F0007F4B
:1057F00006D1FDF72BFB001B0228F5D9032056E04C
:10580000002054E0002052E0304A916A106B012BD6
:105810004ED001F00303A26A93424BD1C1F30511AC
:10582000E36A994248D1C0F30802236B013B9A42D4
:1058300044D1C0F34622636B013B9A4240D1C0F38E
:105840000642A36B013B9A423CD1C0F30660E36B76
:10585000013B984238D11D4B5B6BC3F3CC03A26C68
:105860009A4201D1002022E0184AD36A23F00103B2
:10587000D362FDF7EBFA0546FDF7E8FAA842FBD044
:10588000124A536B6FF3CF03A16C43EAC103536316
:10589000D36A43F00103D362002008E0012070477F
:1058A000012004E0012002E0012000E0002038BDDA
:1058B0000120FCE70120FAE70120F8E70120F6E7E4
:1058C0000120F4E70120F2E70120F0E7004402584C
:1058D0000CFCFFFF754B1B6903F03803102B00F025
:1058E000DE80182B0FD0002B40F0DB806F4B1B6845
:1058F00013F0200F00F0D7806C4B1B68C3F3C1037B
:105900006B48D840704710B4684B9A6A02F00302A3
:105910009C6AC4F30510D96A01F001015B6BC3F303
:10592000CC0301FB03F307EE903AF8EE677A14F428
:105930007C7F77D0012A4AD0022A76D0002A40F014
:1059400091805A4B1B6813F0200F23D057490A68E7
:10595000C2F3C102564BD34007EE103AF8EE476A45
:1059600007EE100AB8EE476A86EE867A0B6BC3F331
:10597000080306EE903AF8EE666A9FED4E6A67EE0F
:10598000867A76EEA77AF7EE006A77EEA67A27EEA9
:10599000277A38E007EE100AF8EE476A9FED466A6C
:1059A00086EE267A414B1B6BC3F3080306EE903A52
:1059B000F8EE666A9FED3F6A67EE867A76EEA77A22
:1059C000F7EE006A77EEA67A27EE277A1BE007EE5D
:1059D000100AF8EE476A9FED396A86EE267A334B55
:1059E0001B6BC3F3080306EE903AF8EE666A9FED70
:1059F000316A67EE867A76EEA77AF7EE006A77EE7E
:105A0000A67A27EE277A294B1B6BC3F34623013373
:105A100007EE903AF8EE677AC7EE276AFCEEE67A70
:105A200017EE900A5DF8044B704707EE100AF8EE87
:105A3000476A9FED236A86EE267A1C4B1B6BC3F3E5
:105A4000080306EE903AF8EE666A9FED1A6A67EE72
:105A5000867A76EEA77AF7EE006A77EEA67A27EED8
:105A6000277AD0E707EE100AF8EE476A9FED136A2F
:105A700086EE267A0D4B1B6BC3F3080306EE903AB5
:105A8000F8EE666A9FED0B6A67EE867A76EEA77A85
:105A9000F7EE006A77EEA67A27EE277AB3E7094891
:105AA0007047094870470248704700BF00440258D9
:105AB0000090D003000000390024744C0024744A84
:105AC00020BCBE4B40787D0100093D00002800F05D
:105AD000328170B50D4604469B4B1B6803F00F03E3
