:020000040800F2
:1000000000000824312800080D2200080F220008F3
:100010001122000813220008152200080000000029
:10002000000000000000000000000000D18C00086B
:100030001722000800000000718D00089585000857
:1000400085280008852800088528000885280008DC
:1000500085280008852800088528000885280008CC
:10006000852800088528000885280008192200082E
:1000700085280008852800088528000885280008AC
:1000800085280008852800088528000829220008FE
:1000900039220008852800088528000885280008DE
:1000A000852800088528000885280008852800087C
:1000B00049220008852800088528000885280008AE
:1000C000852800088528000885280008852800085C
:1000D000852800088528000885280008852800084C
:1000E00085280008852800080000000085280008F1
:1000F000852800088528000885280008852800082C
:10010000852800088528000885280008852800081B
:10011000852800088528000885280008852800080B
:1001200085280008852800088528000885280008FB
:1001300085280008852800088528000885280008EB
:1001400000000000000000000000000000000000AF
:1001500085280008852800088528000885280008CB
:1001600085280008852800088528000885280008BB
:100170008528000885280008852800080000000060
:10018000852800088528000885280008852800089B
:10019000852800088528000885280008852800088B
:1001A000852800088528000885280008852800087B
:1001B000852800088528000885280008852800086B
:1001C000852800088528000885280008852800085B
:1001D000852800088528000885280008852800084B
:1001E000852800088528000885280008852800083B
:1001F000852800088528000885280008852800082B
:10020000852800088528000885280008852800081A
:10021000852800088528000885280008852800080A
:1002200085280008852800088528000800000000AF
:10023000852800088528000800000000852800089F
:1002400085280008852800088528000885280008DA
:1002500085280008852800088528000885280008CA
:1002600085280008852800088528000885280008BA
:10027000852800088528000885280008000000005F
:10028000852800088528000885280008000000004F
:080290000000000085280008B1
:1002A00010B5054C237833B9044B13B10448AFF3B0
:1002B00000800123237010BDD0080024000000003E
:1002C0009CC1030808B5034B1BB103490348AFF3B6
:1002D000008008BD00000000D40800249CC1030871
:1002E00070B54FF0FF0C4CF4E06C1CEA11541DBFCC
:1002F0001CEA135594EA0C0F95EA0C0F00F0DEF897
:100300002C4481EA030621EA4C5123EA4C5350EA7B
:10031000013518BF52EA033541F4801143F48013CC
:1003200038D0A0FB02CE4FF00005E1FB02E506F05D
:100330000042E0FB03E54FF00006E1FB03569CF0B2
:10034000000F18BF4EF0010EA4F1FF04B6F5007FB8
:1003500064F5407404D25FEA4E0E6D4146EB06062A
:1003600042EAC62141EA55514FEAC52040EA5E50B3
:100370004FEACE2EB4F1FD0C88BFBCF5E06F1ED85D
:10038000BEF1004F08BF5FEA500E50F1000041EB94
:10039000045170BD06F0004646EA010140EA020041
:1003A00081EA0301B4EB5C04C2BFD4EB0C0541EA63
:1003B000045170BD41F480114FF0000E013C00F378
:1003C000AB8014F1360FDEBF002001F0004170BD9C
:1003D000C4F10004203C35DA0C341BDC04F11404B5
:1003E000C4F1200500FA05F320FA04F001FA05F241
:1003F00040EA020001F0004221F0004110EBD3700E
:1004000021FA04F642EB06015EEA430E08BF20EA39
:10041000D37070BDC4F10C04C4F1200500FA04F3DC
:1004200020FA05F001FA04F240EA020001F000416E
:1004300010EBD37041F100015EEA430E08BF20EAE1
:10044000D37070BDC4F1200500FA05F24EEA020E29
:1004500020FA04F301FA05F243EA020321FA04F058
:1004600001F0004121FA04F220EA020000EBD3700F
:100470005EEA430E08BF20EAD37070BD94F0000F0F
:100480000FD101F00046400041EB010111F4801F43
:1004900008BF013CF7D041EA060195F0000F18BFF4
:1004A000704703F00046520043EB030313F4801F30
:1004B00008BF013DF7D043EA0603704794EA0C0FEA
:1004C0000CEA135518BF95EA0C0F0CD050EA410600
:1004D00018BF52EA4306D1D181EA030101F000417D
:1004E0004FF0000070BD50EA410606BF10461946A5
:1004F00052EA430619D094EA0C0F02D150EA0136B1
:1005000013D195EA0C0F05D152EA03361CBF1046F1
:1005100019460AD181EA030101F0004141F0FE4190
:1005200041F470014FF0000070BD41F0FE4141F414
:10053000780170BD81F0004102E000BF83F000430C
:1005400030B54FEA41044FEA430594EA050F08BF6E
:1005500090EA020F1FBF54EA000C55EA020C7FEA32
:10056000645C7FEA655C00F0E2804FEA5454D4EBAF
:100570005555B8BF6D420CDD2C4480EA020281EA79
:10058000030382EA000083EA010180EA020281EAB1
:100590000303362D88BF30BD11F0004F4FEA013103
:1005A0004FF4801C4CEA113102D0404261EB410112
:1005B00013F0004F4FEA03334CEA133302D0524298
:1005C00063EB430394EA050F00F0A780A4F1010454
:1005D000D5F1200E0DDB02FA0EFC22FA05F280188E
:1005E00041F1000103FA0EF2801843FA05F3594174
:1005F0000EE0A5F120050EF1200E012A03FA0EFCF3
:1006000028BF4CF0020C43FA05F3C01851EBE3711C
:1006100001F0004507D54FF0000EDCF1000C7EEB39
:1006200000006EEB0101B1F5801F1BD3B1F5001F77
:100630000CD349085FEA30004FEA3C0C04F1010496
:100640004FEA445212F5800F80F09A80BCF1004FBF
:1006500008BF5FEA500C50F1000041EB045141EA41
:10066000050130BD5FEA4C0C404141EB0101013C0A
:1006700028BFB1F5801FE9D291F0000F04BF0146F9
:100680000020B1FA81F308BF2033A3F10B03B3F1CB
:1006900020020CDA0C3208DD02F1140CC2F10C025B
:1006A00001FA0CF021FA02F10CE002F11402D8BFB9
:1006B000C2F1200C01FA02F120FA0CFCDCBF41EA85
:1006C0000C019040E41AA2BF01EB0451294330BD54
:1006D0006FEA04041F3C1CDA0C340EDC04F1140431
:1006E000C4F1200220FA04F001FA02F340EA030008
:1006F00021FA04F345EA030130BDC4F10C04C4F14E
:10070000200220FA02F001FA04F340EA030029462D
:1007100030BD21FA04F0294630BD94F0000F83F477
:10072000801306BF81F480110134013D4EE77FEA5A
:10073000645C18BF7FEA655C29D094EA050F08BFA6
:1007400090EA020F05D054EA000C04BF1946104687
:1007500030BD91EA030F1EBF0021002030BD5FEACB
:10076000545C05D14000494128BF41F0004130BDF3
:1007700014F580043CBF01F5801130BD01F0004547
:1007800045F0FE4141F470014FF0000030BD7FEABA
:10079000645C1ABF194610467FEA655C1CBF0B46B5
:1007A000024650EA013406BF52EA033591EA030FCC
:1007B00041F4002130BD00BF90F0000F04BF0021C4
:1007C000704730B54FF4806404F132044FF00005F7
:1007D0004FF0000150E700BF90F0000F04BF002170
:1007E000704730B54FF4806404F1320410F00045D6
:1007F00048BF40424FF000013EE700BF42004FEAD1
:10080000E2014FEA31014FEA02701FBF12F07F434D
:1008100093F07F4F81F06051704732F07F4208BF04
:10082000704793F07F4F04BF41F40021704730B50B
:100830004FF4607401F0004521F000411CE700BF57
:1008400050EA010208BF704730B54FF000050AE0DA
:1008500050EA010208BF704730B511F0004502D5DB
:10086000404261EB41014FF4806404F132045FEADD
:10087000915C3FF4D8AE4FF003025FEADC0C18BF86
:1008800003325FEADC0C18BF033202EBDC02C2F178
:10089000200300FA03FC20FA02F001FA03FE40EA0A
:1008A0000E0021FA02F11444BDE600BF4FEA4102F6
:1008B00012F5001215D211D56FF47873B3EB6252B2
:1008C00012D94FEAC12343F0004343EA505311F0D9
:1008D000004F23FA02F018BF404270474FF000006B
:1008E000704750EA013005D111F0004008BF6FF0A9
:1008F000004070474FF00000704700BF4FEA4102D0
:10090000B2F1E04324BFB3F5001CDCF1FE5C0DD96D
:1009100001F0004C4FEAC0024CEA5070B2F1004FB7
:1009200040EB830008BF20F00100704711F0804FBA
:1009300021D113F13872BCBF01F00040704741F47F
:1009400080114FEA5252C2F11802C2F1200C10FA83
:100950000CF320FA02F018BF40F001004FEAC12367
:100960004FEAD32303FA0CFC40EA0C0023FA02F30B
:100970004FEA4303CCE77FEA625307D150EA0133E1
:100980001EBF4FF0FE4040F44000704701F00040B1
:1009900040F0FE4040F40000704700BF7BB972B9E0
:1009A0000029BEBF00204FF0004106E008BF00282C
:1009B0001CBF6FF000414FF0FF3000F0D3B9ADF134
:1009C000080C6DE904CE002909DB002B1ADB00F0CE
:1009D0004DF8DDF804E0DDE9022304B07047404241
:1009E00061EB4101002B1BDB00F040F8DDF804E077
:1009F000DDE9022304B0404261EB4101524263EB66
:100A000043037047524263EB430300F02FF8DDF8D5
:100A100004E0DDE9022304B0404261EB410170478C
:100A2000524263EB430300F021F8DDF804E0DDE916
:100A3000022304B0524263EB4303704753B94AB9EF
:100A4000002908BF00281CBF4FF0FF314FF0FF30D6
:100A500000F088B9ADF1080C6DE904CE00F006F89D
:100A6000DDF804E0DDE9022304B070472DE9F0472A
:100A7000089D8E4604468846002B4AD18A42174676
:100A800062D9B2FA82F64EB1C6F1200301FA06F835
:100A900020FA03F3B74043EA0808B4404FEA174E80
:100AA0001FFA87FCB8FBFEF1230C0EFB118843EA0A
:100AB000084301FB0CF29A4209D9FB1801F1FF30FF
:100AC00080F0EA809A4240F2E78002393B449A1A69
:100AD000A3B2B2FBFEF00EFB102243EA024300FB7E
:100AE0000CFC9C4509D9FB1800F1FF3280F0D68040
:100AF0009C4540F2D3803B44023840EA0140A3EBDE
:100B00000C0300211DB1F3400022C5E90032BDE80D
:100B1000F0878B4205D90DB1C5E9000100210846D7
:100B2000F5E7B3FA83F1002946D1734502D3824237
:100B300000F20581841A6EEB030201209046002D1D
:100B4000E5D0C5E90048E2E7002A00F09080B2FA5B
:100B500082F6002E40F0A4808A1A030C4FEA174E4A
:100B600080B2BCB20121B2FBFEFC0EFB1C2243EAA8
:100B7000024304FB0CF29A4207D9FB180CF1FF3830
:100B800002D29A4200F2E080C4469B1AB3FBFEF206
:100B90000EFB123340EA034302FB04F49C4207D9E4
:100BA000FB1802F1FF3002D29C4200F2CA800246DA
:100BB0001B1B42EA0C40A5E7C1F120068B4022FA3C
:100BC00006F71F430EFA01F420FA06F32EFA06FE8A
:100BD0004FEA1749234300FA01F81FFA87FCBEFBCE
:100BE000F9F01C0C09FB10EE44EA0E4400FB0CFE6D
:100BF000A64502FA01F209D93C1900F1FF3A80F04A
:100C00009C80A64540F2998002383C44A4EB0E0437
:100C10001FFA83FEB4FBF9F309FB13444EEA0444C4
:100C200003FB0CFCA44508D93C1903F1FF3E80F0FE
:100C30008280A4457FD9023B3C4443EA0040A4EBB8
:100C40000C04A0FB02EC64457346E14662D35FD01E
:100C50005DB1B8EB030264EB090404FA06F622FA6C
:100C600001F31E43CC40C5E9006400214FE7B1FB0E
:100C7000F2FC010C41EA0E4180B240EA01423B46DF
:100C800038463C46B846BE462026B1FBF7F1A2EBFB
:100C9000080241EA0C4166E7014618E710462CE7D6
:100CA000C6F120022EFA02F3B740B14020FA02F258
:100CB0004FEA174E0A43B3FBFEF8BCB20EFB1833E3
:100CC000110C41EA034108FB04F9B04089454FEAA1
:100CD000104380B23ED9791808F1FF3C01D2894512
:100CE0001FD8A1EB0901B1FBFEF909FB04F80EFBCB
:100CF000191192B242EA0142424529D2BA1809F1C9
:100D0000FF31C4D24245C2D2A9F102013A44BEE742
:100D1000F0459DD2BEEB02036CEB070C0138E146B7
:100D200096E7A7EB09094944A8F1020CB1FBFEF9CB
:100D300009FB04F8DBE773467FE7504666E70846A1
:100D4000FDE63B44023A33E7ACF1020C3B441CE7BE
:100D500049469CE7A1EB0901C446B1FBFEF909FB3A
:100D600004F8C4E7704700BF38B50C2000F0F8FB6A
:100D7000194B9D8F194BA3FB0535ED09002412E09B
:100D8000C4F10C01C9B24A0001EB810104EB8400FB
:100D900000EB8000234602F0FE02C9B2C0B200F0B0
:100DA00069FB0134A4B2AC42EAD311E0284600F05A
:100DB000F5FB502001F0A8FD0C2000F0D1FB5020E5
:100DC00001F0A2FD044B9D8F044BA3FB0535ED09FB
:100DD000082DEBD838BD00BF3C0900241F85EB511E
:100DE00038B50C4640F21123984247D040F2132305
:100DF00098424DD050284AD14B78464A1373512B14
:100E000054D0532B43D18878CB7840EA032000B2EA
:100E1000FFF7E2FC00224FF07C53FFF761FA00225B
:100E20003D4BFFF75DFAFFF769FD3A4D68622079A7
:100E3000637940EA032000B2FFF7CEFC00224FF0B6
:100E40007C53FFF74DFA0022334BFFF749FAFFF7C7
:100E500055FD2862A079E37940EA032000B2FFF74C
:100E6000BBFC00224FF07C53FFF73AFA00222A4BDA
:100E7000FFF736FAFFF742FDE86108E00A78254BF4
:100E80001A704A785A708A789A70CA78DA7038BDBF
:100E90004B7903F003031F4A1371CB795A3B07EEDA
:100EA000903AF8EEE77AC2ED027AF0E78B78CA78EA
:100EB00043EA02231BB207EE903AF8EEE77ADFED41
:100EC000176A67EEA67AB3EE007A67EE877A114A60
:100ED000C2ED047A0B79497943EA01231BB207EE8C
:100EE000903AF8EEE77A67EEA67A67EE877AC2ED77
:100EF000057AA379E17943EA01231BB207EE903A20
:100F0000F8EEE77A67EEA67A67EE877AC2ED067AA0
:100F1000BDE700BF3C0900240080664000000038A7
:100F200038B50C469E4B984200F0C4801FD89D4BAC
:100F3000984241D09C4B984263D09C4B98425FD1E1
:100F40000B784A7803EB0223994A02EB6302994B30
:100F5000DA868A78C97802EB01229A86227983F8A8
:100F60003820627902F0030283F8392048E0924B7E
:100F7000984263D0914B984200F0D880904B9842B1
:100F80003ED10B784A7803EB0223894A02EB6302D5
:100F9000884B9A878A78C97802EB01225A8722798E
:100FA00083F83E20627983F83F20A279E17942EA12
:100FB000910283F8402023E00A784B7802EB032269
:100FC0007B4B03EB62037B4D6B858B78CA7803EB1D
:100FD00002232B850B7985F82C304B7903F0030322
:100FE00085F82D308B79C87903EB0020FFF7F4FBEF
:100FF00069A3D3E90023FFF773F9FFF77FFC2863A8
:1010000038BD0B784A7803EB0223694A02EB63028E
:10101000684BA3F844208A78C97802EB0122A3F830
:101020004220227983F84620627983F84720A2790A
:10103000E17942EA910283F84820E1E70B78323BFC
:101040005C4D85F849304B78323B85F84A308B78D7
:10105000C87803EB0020FFF7BFFB4FA3D3E90023C1
:10106000FFF73EF9FFF74AFCE8642379607903EB68
:101070000020FFF7B1FB48A3D3E90023FFF730F9C5
:101080000022504BFFF75AFAFFF738FC2865A37986
:10109000E07903EB0020FFF79FFB3FA3D3E9002398
:1010A000FFF71EF90022474BFFF748FAFFF726FC2F
:1010B0006865A5E70B78323B3E4D85F858304B7894
:1010C000323B85F859308B78C87803EB0020FFF766
:1010D00083FB31A3D3E90023FFF702F9FFF70EFCEE
:1010E000E8652379607903EB0020FFF775FB2AA3FD
:1010F000D3E90023FFF7F4F80022324BFFF71EFA82
:10110000FFF7FCFB2866A379E07903EB0020FFF7EB
:1011100063FB21A3D3E90023FFF7E2F80022294B68
:10112000FFF70CFAFFF7EAFB686669E74B78087887
:1011300003EB0020FFF750FB17A3D3E90023FFF7D1
:10114000CFF8FFF7DBFB1B4DA866E378A07803EB35
:101150000020FFF741FB10A3D3E90023FFF7C0F8FD
:101160000022194BFFF7EAF9FFF7C8FBE86623797D
:1011700085F87030637985F87130A3791B0985F89B
:101180007230A37943F00F0385F87330E37985F863
:10119000743035E7AFF300809A9999999999B93FDE
:1011A000EF21B30C21EFC108EF21B20C21EFB10800
:1011B000F0D8FFFF3C090024EFC7FF0CF340601894
:1011C000EFC6FF0C0000994000408F40024B2C22DC
:1011D000A3F8FE20704700BF00FF0F60094B2A22D2
:1011E000A3F8FE20020AA3F80021C0B2A3F8000170
:1011F0002B22A3F8FE200A0AA3F80021C9B2A3F803
:101200000011704700FF0F6010B50446002108462A
:10121000FFF7E4FFFFF7DAFF002303E0034AA2F839
:1012200000410133B3F5163FF8D310BD00FF0F6046
:101230002DE9F84381468846089E141AA4B2013469
:10124000A4B25F1ABFB20137BFB200250CE004FBA5
:10125000053236F812100B4AA2F8001101339BB286
:10126000A342F4D30135ADB2BD4209D205EB08016A
:1012700089B24846FFF7B2FFFFF7A8FF0023EFE768
:10128000BDE8F88300FF0F602DE9F047642001F00E
:101290003BFB774CF023A4F8FE30C322A4F80021D6
:1012A000A4F8FE309622A4F800213622A4F8FE20ED
:1012B0003827A4F800714FF03A08A4F8FE804FF0E8
:1012C000050CA4F800C1B422A4F8FE200122A4F861
:1012D0000021B121A4F8FE108021A4F800111020F3
:1012E000A4F80001C020A4F8FE00A4F800116421B5
:1012F000A4F80011C121A4F8FE101321A4F80011D4
:10130000C220A4F8FE00A720A4F80001C520A4F87C
:10131000FE004FF0090EA4F800E1E820A4F8FE005A
:101320004020A4F800018A20A4F800010025A4F8B8
:101330000051A4F800512926A4F800611920A4F84E
:101340000001A520A4F800013320A4F800014FF00B
:10135000E009A4F8FE90A4F800314FF00609A4F8C3
:1013600000914FF00B0AA4F800A14FF0070AA4F86F
:1013700000A1A4F80091A4F800C14FF02E0CA4F82D
:1013800000C1A4F800014FF04709A4F80091A4F8A7
:1013900000814FF01708A4F800814FF01608A4F858
:1013A0000081A4F800C14FF03108A4F800814FF08B
:1013B000E108A4F8FE80A4F80031A4F800E14FF0A1
:1013C0000D08A4F80081A4F800E14FF0080EA4F87D
:1013D00000E14FF0230EA4F800E1A4F800C1A4F846
:1013E00000014620A4F80001A4F80071A4F800113F
:1013F000A4F800112C27A4F800714FF03208A4F8CB
:101400000081A4F8FE303C21A4F80011A4F8FE30BD
:101410006923A4F800312123A4F8FE302B23A4F87B
:10142000FE30A4F80051A4F80051A4F800213F2395
:10143000A4F800312A23A4F8FE30A4F80051A4F83F
:101440000051A4F80021DF23A4F800311123A4F8EF
:10145000FE30782001F058FAA4F8FE60404601F012
:1014600053FAA4F8FE702846FFF7CEFEBDE8F087D9
:1014700000FF0F6070B503EB43031C0104F5967485
:10148000344B1C444FF0000C27E0334BDB68013336
:10149000324EA6FB0363C3F34F03013B9BB230E024
:1014A0002D4BDB6801332D4EA6FB0363C3F34F03C3
:1014B000013B9BB238E0284BDB680133274DA5FB8D
:1014C0000353C3F34F03013B9BB20EF1100E24F8FC
:1014D0001E300CF1010C1FFA8CFCBCF1070F38D840
:1014E000654601FA0CF313F0800FCED01A4BDB687F
:1014F00001331A4EA6FB036323F001039BB2013BA9
:101500009BB2E64624F81C3000FA05F313F0800F76
:10151000C6D0114BDB680133104EA6FB036323F0EA
:1015200001039BB2013B9BB20EF1080624F8163072
:1015300002FA05F515F0800FBDD0074BDB680133CB
:10154000064DA5FB035323F001039BB2013B9BB265
:10155000BBE770BDC4050024240C0024ABAAAAAAD2
:1015600070B5054600EB4006F6009636002407E00D
:101570002346002211461046FFF77CFF0134E4B2F7
:10158000AC42F5D33346034A0021034805F090FFEF
:1015900070BD00BFC4050024240C002470B50546AE
:1015A00000EB4006F60096360B20FFF7D9FF00242B
:1015B00007E0234600221146FF20FFF75BFF0134BE
:1015C000E4B2AC42F5D33346024A0021024805F0AA
:1015D0006FFF70BDC4050024240C002408B5034827
:1015E00003680021596306F0FDF808BD240C0024AF
:1015F00000B589B04FF0804300930123019302228C
:10160000029203930023049305936946044802F071
:101610007BFE10B909B05DF804FB00F0B6FCF9E7F9
:10162000580A002400B589B04FF08043009301238D
:1016300001930222029203930023049305936946C7
:10164000044802F061FE10B909B05DF804FB00F037
:101650009CFCF9E7B809002430B583B0FFF7C8FF58
:10166000FFF7E0FF184D0024009423462246214650
:10167000284602F08EFE0094234622462146134857
:1016800002F087FE284602F09FFE88B90F4802F05C
:101690009BFE80B9002201210B4802F0A1FF68B92E
:1016A00000220121094802F09BFF50B903B030BD70
:1016B00000F06BFCEAE700F068FCEBE700F065FC8B
:1016C000EEE700F062FCF1E7580A0024B8090024B4
:1016D00011F0010F2FD010B582B00446164B98427E
:1016E00004D0164B9C4213D002B010BD6B46144A76
:1016F000402102F083FE0028F3D16946104B1868A0
:10170000FFF70EFC0F210F4B186807F008F8E8E709
:101710006B460D4A4021204602F070FE0028E3D1BE
:101720006946094B1868FFF75BFB0F21054B1868EA
:1017300006F0F5FFD8E77047580A0024B8090024DE
:1017400014090024480B0024EC08002400B583B0E1
:101750000B4BD3F8D82042F00102C3F8D820D3F8BD
:10176000D83003F001030193019B002205210B20D7
:1017700001F036F90B2001F043F903B05DF804FBEA
:101780000044025808B51648164B036000238360D6
:10179000C360037443748374142242610122826122
:1017A0000221C161016242628262C26202634363DA
:1017B0008363C26320220264042242648364C2649D
:1017C000036542658365C3651021016643668266D1
:1017D00002F050FC00B908BD00F0D7FBFBE700BFEA
:1017E000580A002400A0004010B51848184B0360A8
:1017F00000238360C36003744374837414224261C2
:10180000012282610221C161016242628262C2627E
:1018100002631049D1F890400F492144416383632A
:10182000C26320220264042242648364C2640365AA
:1018300042658365C365102101664366826602F0D6
:1018400019FC00B910BD00F0A0FBFBE7B8090024AB
:1018500000A40040580A00240054FFBF10B5BAB0DD
:101860000446002135913691379138913991C02243
:1018700004A83AF07AFA2368474A934204D0474AC8
:10188000934245D03AB010BD4FF400420023CDE959
:10189000042304A804F0E2F848BB414A136801336A
:1018A0001360012B26D03F4BD3F8E02042F0020218
:1018B000C3F8E020D3F8E03003F002030193019B6A
:1018C0004FF44073359302233693002437943894B1
:1018D0000923399335A9344803F06AF822460521D3
:1018E000132001F07DF8132001F08AF8CAE700F018
:1018F0004CFBD2E72B4BD3F8EC2042F48072C3F8B8
:10190000EC20D3F8EC3003F480730093009BCAE71B
:101910004FF400420023CDE9042304A804F09EF80C
:1019200048BB1F4A136801331360012B26D01D4B9F
:10193000D3F8E02042F00202C3F8E020D3F8E03010
:1019400003F002030393039B4FF4405335930223A8
:1019500036930024379438940923399335A91248D3
:1019600003F026F822460521142001F039F814204E
:1019700001F046F886E700F008FBD2E7094BD3F800
:10198000EC2042F48072C3F8EC20D3F8EC3003F47E
:1019900080730293029BCAE700A0004000A40040AD
:1019A000B40900240044025800040258F0B5B9B04C
:1019B000002333933493359336933793204B1B682E
:1019C0000BB139B0F0BD1E4B01221A60C0220021BC
:1019D00002A83AF0CAF94FF080720023CDE9022341
:1019E00002A804F03BF838BB164BD3F8D42042F4DD
:1019F0008052C3F8D420D3F8D43003F48053019339
:101A0000019B4FF68873339302273497002635964F
:101A1000032536950C24379433A90B4802F0C8FFF0
:101A20004CF2B3733393349735963695379433A984
:101A3000064802F0BDFFC4E700F0A7FAD4E700BFF4
:101A4000F80A00240044025800100258000C025802
:101A500070B58EB000230793089309930A930B93F4
:101A60000C930D93009301930293039304930593B6
:101A700006931A481A4A026002F582724260836035
:101A8000C3600361102242618361C36103624FF44A
:101A90008051416283624FF48041C16203634363BA
:101AA0008363C3630364022607960F250895042405
:101AB000099401210A910B9211230C930096019530
:101AC00002940391049205936A4607A904F02EFF3D
:101AD00008B90EB070BD00F058FAFAE7FC0A00240D
:101AE0000040005208B5FFF761FF08BD000000008C
:101AF00070B55EE0FEF770FE85A3D3E90023FEF724
:101B0000EFFB85A3D3E90023FEF71AFDFEF7CEFE17
:101B10000146854CA06D2CF050FF844BB3F8440077
:101B2000FEF75AFE76A3D3E90023FEF7D9FB76A38E
:101B3000D3E90023FEF704FDFEF7B8FE0146E06C92
:101B400031F0E3FF8DE0794DA88FFEF745FE70A3DD
:101B5000D3E90023FEF7C4FB6FA3D3E90023FEF70C
:101B6000EFFCFEF7A3FE01466F4CE06D2CF025FF65
:101B7000B5F84400FEF730FE61A3D3E90023FEF779
:101B8000AFFB61A3D3E90023FEF7DAFCFEF78EFE7C
:101B90000146E06C31F0B9FF88E06549624B186B93
:101BA00033F0ACF9634B186806F099FE322006F06A
:101BB00086FD4FF0FF33012211465F48006806F0B2
:101BC000D9FD04464FF0FF315A4B186806F058FE15
:101BD000002CE7D0554C594E534D22783146286998
:101BE00033F0C6F994F949203146686B33F0C0F9F7
:101BF00094F958203146A86B33F0BAF994F94A2089
:101C00004F49286933F0B4F994F959204D492869AE
:101C100033F0AEF9002294F87010686C2DF042FA9F
:101C2000A08FB0F5FA6F3FF665AFFEF7D5FD3CA388
:101C3000D3E90023FEF754FBFEF738FE0146A86DFA
:101C40002CF0BBFE394BB3F84400FEF7C5FD002273
:101C50003D4BFEF745FBFEF729FE0146E86C31F0EF
:101C600054FF324BB3F84430B3F5FA6F3FF66BAF25
:101C70002E4DA88FFEF7B0FD29A3D3E90023FEF770
:101C80002FFBFEF713FE0146274CE06D2CF095FE6E
:101C9000B5F84400FEF7A0FD00222B4BFEF720FB19
:101CA000FEF704FE0146E06C31F02FFF1F4B1B795D
:101CB000042B3FF677AF01A252F823F09B1B0008DC
:101CC000D11C0008DD1C0008E91C0008F51C0008F8
:101CD0001E49154B186B33F011F963E71C49124B81
:101CE000186B33F00BF95DE71A490F4B186B33F0A3
:101CF00005F957E718490C4B186B33F0FFF851E71B
:101D0000A8C64B378941C03F0000000000C06E40AC
:101D10009A9999999999E93F0000000000909A409A
:101D2000666666666666FA3F108201243C090024F6
:101D300050C203084C0B0024480B002428C203089F
:101D400030C2030840C203080000D03F54C2030859
:101D500058C203085CC2030860C2030810B506E05D
:101D60000A4B186806F0BBFD204606F0A8FC4FF0B1
:101D7000FF31064B186806F083FD27F053FA04463E
:101D8000B0F1FF3FECD12124EAE700BF4C0B002467
:101D900008B5FFF761FC4FF0FF33012211460448FC
:101DA000006806F0E7FC0028F5D0FEF7DDFFF2E75B
:101DB000480B002408B5104806F014FD0F4B1860BE
:101DC0000F4A00210F4806F01FFC0F4B18600F4A06
:101DD00000210F4806F018FC0E4B18600E4A002137
:101DE0000E4806F011FC0E4B18600E4806F075FC0C
:101DF0000D4B186008BD00BFA8CA03084C0B002497
:101E000000CB0308F11A0008580B0024DCCA0308B1
:101E10005D1D0008540B0024B8CA0308911D00087A
:101E2000500B002498CA0308480B002430B58DB02D
:101E300000240794089409940A940B942E4BD3F829
:101E4000E02042F01002C3F8E020D3F8E02002F0D6
:101E500010020192019AD3F8E02042F00402C3F884
:101E6000E020D3F8E02002F004020292029AD3F8B4
:101E7000E02042F08002C3F8E020D3F8E02002F036
:101E800080020392039AD3F8E02042F00202C3F8E2
:101E9000E020D3F8E02002F002020492049AD3F882
:101EA000E02042F00802C3F8E020D3F8E02002F07E
:101EB00008020592059AD3F8E02042F00102C3F827
:101EC000E020D3F8E03003F001030693069B0B4DAE
:101ED00022464FF44051284602F07AFE4FF4405318
:101EE000079301230893099403230A9307A928461B
:101EF00002F05EFD0DB030BD00440258000C0258E7
:101F000030B585B00024009401940294039400F04D
:101F10007BFD01258DF800508DF801404FF0C04346
:101F200001931B238DF808308DF809408DF80A4085
:101F300003238DF80B308DF80C408DF80D408DF893
:101F40000E408DF80F50684600F07CFD8DF8015072
:101F50004FF01053019312238DF808308DF809408B
:101F60008DF80A508DF80F40684600F06BFD042094
:101F700000F058FD05B030BD08B50368B3F1804FDF
:101F800000D008BD00F0AEFCFBE772B6FEE7000033
:101F900000B59DB04C22002109A839F0E6FE2022B0
:101FA000002101A839F0E1FE022002F017FE002313
:101FB0000093264B9A6942F440429A619B6903F46C
:101FC00040430093224BDA6A42F00102DA62DB6A94
:101FD00003F001030093009B1C4B9B6913F4005F0B
:101FE000FAD0012309934FF480330A93022312930A
:101FF000139305221492C022159216930623179369
:1020000018930823199300231A931B9309A802F02D
:102010000FFEB8B93F2301930323029300230393D8
:10202000082304934023059306934FF4806207929C
:10203000089304210DEB010003F04EFA20B91DB006
:102040005DF804FBFFF7A1FFFFF79FFF0048025870
:102050000004005808B5FFF753FF364B5B6913F4D3
:10206000003F13D1BFF34F8FBFF36F8F314B00226F
:10207000C3F85022BFF34F8FBFF36F8F5A6942F4FA
:1020800000325A61BFF34F8FBFF36F8F294B5B69EB
:1020900013F4803F27D1274B0022C3F88420BFF3DD
:1020A0004F8FD3F88040C4F34E3000E01846C4F39D
:1020B000C90243F6E07303EA401343EA82731D4901
:1020C000C1F860321346013A002BF2D1431E0028BA
:1020D000ECD1BFF34F8F4B6943F480334B61BFF3B7
:1020E0004F8FBFF36F8F00F0CFFBFFF751FFFFF76C
:1020F0009DFEFFF72BFB00F0C5F900F03FFA00F062
:1021000071FA00F0A3FAFFF73DFBFFF76DFBFFF755
:102110009FFC23F0A9F808482BF0E6FF08F0EEFD3D
:1021200039F01CFE06F042FAFFF744FE06F050FAC2
:10213000FEE700BF00ED00E085A0000800B583B019
:102140000A4BD3F8F42042F00202C3F8F420D3F88B
:10215000F43003F002030193019B00220F216FF082
:10216000010000F03DFC03B05DF804FB00440258A0
:102170000F2801D90120704710B58AB0044600220B
:1021800001461C2000F02CFC1C2000F039FC1B4BED
:102190001C601B4BD3F8E82042F00102C3F8E82092
:1021A000D3F8E83003F001030093009B01A902A8D3
:1021B00003F022FB079BC3B903F0FAFA0346114A66
:1021C000A2FB03239B0C013B0F484FF080420260AF
:1021D00040F2E732C260436000230361836004F091
:1021E00067FF30B101200AB010BD03F0E1FA4300EF
:1021F000E5E7054804F04AFDF5E700BF0C000024C0
:102200000044025883DE1B435C0B0024FEE7FEE71C
:10221000FEE7FEE7FEE7704708B5024801F0A4FAC2
:1022200008BD00BFAC0B002408B5024802F030FA2C
:1022300008BD00BF580A002408B5024802F028FA79
:1022400008BD00BFB809002408B5024804F0C2FD6B
:1022500008BD00BF5C0B002410B503460C4A0D49B5
:102260000D48006840B10C4800680344521A93427C
:1022700006D8094A136010BD0748084C0460F2E70D
:1022800039F0B0FD0C2303604FF0FF30F3E700BFDF
:102290000000082400080000A80B00247085012419
:1022A000314AD2F8883043F47003C2F888302F4B9B
:1022B0001B6803F00F03062B06D82C4A136823F083
:1022C0000F0343F007031360294B1A6842F0010221
:1022D0001A6000221A611968264A0A401A60234BC4
:1022E0001B6813F0080F06D0204A136823F00F0371
:1022F00043F0070313601E4B00229A61DA611A62F1
:102300001D4999621D49D9621D4919635A63996330
:10231000DA6319645A64196821F4802119601A6615
:10232000184B1B686FF30F03B3F1005F03D2164B1A
:102330000122C3F808210E4BD3F8D43013F4805F88
:1023400010D10B4BD3F8D42042F48052C3F8D420E0
:102350000E4A43F2D2011160D3F8D42022F4805205
:10236000C3F8D420704700BF00ED00E00020005209
:10237000004402587FEDF6EA000202020000FF016D
:10238000800201010010005C0080005100400052FA
:10239000054AD36843F00203D360034B5B6813F430
:1023A000005FFAD0704700BF0048025802681A4B1D
:1023B0009A4200D0704710B582B00446174BD3F84C
:1023C000F02042F00102C3F8F020D3F8F03003F01F
:1023D00001030193019B1248124B03600B234360DE
:1023E000402383600023C3604FF4806202614FF496
:1023F000006242614FF400528261C3610362436232
:1024000000F05CFD20B9064B63629C6302B010BD16
:10241000FFF7BBFDF7E700BF000001400044025892
:10242000AC0B00241000024000B587B000230193DC
:10243000029303930493059302680F4B9A4202D0D0
:1024400007B05DF804FB0D4BD3F8E02042F0010229
:10245000C3F8E020D3F8E03003F001030093009BC1
:102460004FF480730193022302930123059301A982
:10247000034802F09DFAE3E70000014000440258DF
:102480000000025810B59AB00024169417941894BE
:1024900019941394149415940C940D940E940F9411
:1024A0001094119412942C22214601A839F05DFC5D
:1024B0003048314B03604460846040F22B13C360AA
:1024C00004614461846104F0F3FD00283FD14FF4BE
:1024D0008053169316A9274804F03EFF002839D1EF
:1024E000244804F015FE002837D1002313931493D9
:1024F000159313A91F4805F00DFA002830D1602369
:102500000C9300220D920E920F9210921192129241
:102510000CA9184804F076FE28BB0023019302930F
:102520000393049305934FF4005206920793089384
:102530004FF0007209920A930B9301A90D4805F020
:1025400039FA98B90B48FFF76FFF1AB010BDFFF7C3
:102550001CFDBCE7FFF719FDC2E7FFF716FDC4E756
:10256000FFF713FDCBE7FFF710FDD6E7FFF70DFDF3
:10257000E8E700BF240C00240000014008B517481C
:10258000174B03604FF4E133436000238360C36063
:1025900003610C2242618361C3610362436283620F
:1025A00005F09BFE70B900210C4805F00EFF60B9E4
:1025B00000210A4805F02EFF50B9084805F0E6FE54
:1025C00048B908BDFFF7E1FCEDE7FFF7DEFCEFE7F8
:1025D000FFF7DBFCF1E7FFF7D8FCF2E7980D0024EA
:1025E0000010014008B51748174B03604FF4E12372
:1025F000436000238360C36003610C2242618361F6
:10260000C36103624362836205F067FE70B9002113
:102610000C4805F0DAFE60B900210A4805F0FAFE20
:1026200050B9084805F0B2FE48B908BDFFF7ADFC47
:10263000EDE7FFF7AAFCEFE7FFF7A7FCF1E7FFF7ED
:10264000A4FCF2E7040D00240048004008B5174838
:10265000174B03604FF4E123436000238360C360A2
:1026600003610C2242618361C3610362436283623E
:1026700005F033FE70B900210C4805F0A6FE60B9E4
:1026800000210A4805F0C6FE50B9084805F07EFE54
:1026900048B908BDFFF779FCEDE7FFF776FCEFE7F7
:1026A000FFF773FCF1E7FFF770FCF2E7700C002412
:1026B0000014014010B5BCB0044600213791389198
:1026C00039913A913B91C02206A839F04EFB23681C
:1026D000514A934207D0514A934237D0504A9342CD
:1026E00067D03CB010BD01220023CDE9062306A827
:1026F00003F0B4F938BB4B4BD3F8F02042F0100292
:10270000C3F8F020D3F8F02002F010020092009AF3
:10271000D3F8E02042F00202C3F8E020D3F8E03022
:1027200003F002030193019B4FF4404337930223CC
:102730003893002339933A9304233B9337A93A48BB
:1027400002F036F9CDE7FFF720FCD4E702220023A0
:10275000CDE9062306A803F081F938BB314BD3F845
:10276000E82042F48022C3F8E820D3F8E82002F4FD
:1027700080220292029AD3F8E02042F00202C3F8CB
:10278000E020D3F8E03003F002030393039B4FF4FF
:102790004063379302233893002339933A930723F6
:1027A0003B9337A9204802F003F99AE7FFF7EDFBC6
:1027B000D4E701220023CDE9062306A803F04EF951
:1027C00030BB184BD3F8F02042F02002C3F8F020C1
:1027D000D3F8F02002F020020492049AD3F8E0200B
:1027E00042F00402C3F8E020D3F8E03003F0040321
:1027F0000593059BC0233793022338930023399315
:102800003A9307233B9337A9084802F0D1F868E7C9
:10281000FFF7BBFBD5E700BF0010014000480040B8
:1028200000140140004402580004025800080258F5
:10283000DFF838D0FFF7ACFDFFF732FD0C480D494B
:102840000D4A002302E0D458C4500433C4188C420B
:10285000F9D30A4A0A4C002301E013600432A24271
:10286000FBD339F0C5FAFFF7F5FB704700000824E9
:1028700000000024C405002400790908D0080024C1
:1028800070850124FEE7000010B5032000F096F8E3
:1028900002F026FD0F498B69C3F303230E4AD35C74
:1028A00003F01F03D8408B6903F00F03D35C03F0E0
:1028B0001F0320FA03F3094A1360094B18600F2025
:1028C000FFF756FC10B10124204610BD0446FFF767
:1028D00035FCF9E70044025824CB0308000000242B
:1028E00004000024034B1B78034A11680B44136057
:1028F000704700BF080000242C0E0024014B18680C
:10290000704700BF2C0E002438B50446FFF7F6FFD1
:102910000546B4F1FF3F02D0044B1B781C44FFF77F
:10292000EDFF401BA042FAD338BD00BF08000024D1
:10293000014B1868000C70470010005C002807DB92
:1029400000F01F02400901239340024A42F8203060
:10295000704700BF00E100E0002804DB0901C9B2B4
:10296000044B1954704700F00F000901C9B2024B23
:102970001954704700E400E014ED00E000B500F0E9
:102980000700C0F1070CBCF1040F28BF4FF0040C86
:10299000031D062B0FD9C31E4FF0FF3E0EFA0CF09D
:1029A00021EA000199400EFA03FE22EA0E0241EAF2
:1029B00002005DF804FB0023EEE700000649CB6847
:1029C00023F4E0631B041B0C000200F4E0600343EB
:1029D000024A1A43CA60704700ED00E00000FA05A1
:1029E00010B50446054BD868C0F30220FFF7C6FFB8
:1029F00001462046FFF7B0FF10BD00BF00ED00E02C
:102A000008B5FFF79BFF08BDBFF35F8F044B5A6A01
:102A100022F480325A620022C3F89420704700BF2B
:102A200000ED00E040F00100054BC3F894005A6A45
:102A300042F480325A62BFF34F8FBFF36F8F7047FB
:102A400000ED00E04378144AC2F89830D2F8A03084
:102A500023F00103C2F8A0304368C2F89C30017B28
:102A6000C37A1B0643EA0173817A43EAC143417B7F
:102A700043EA8143817B43EA4143C17B43EA01430B
:102A8000417A43EA0123017A43EA410301780B4387
:102A9000C2F8A030704700BF00ED00E0F0B4876DD1
:102AA0000468664E664DAC4218BFB44242D0183539
:102AB000AC423FD01835AC423CD01835AC4239D08E
:102AC0001835AC4236D01835AC4233D01835AC424C
:102AD00030D005F55675AC422CD01835AC4229D013
:102AE0001835AC4226D01835AC4223D01835AC424C
:102AF00020D01835AC421DD01835AC421AD018354C
:102B0000AC4217D04F4DAC4214D01435AC4211D06A
:102B10001435AC420ED01435AC420BD01435AC4257
:102B200008D01435AC4205D01435AC4202D014356F
:102B3000AC4207D1446E856E6560C46E14B1046FFB
:102B4000456F656004683D4E3D4DAC4218BFB442D0
:102B500052D01835AC424FD01835AC424CD0183555
:102B6000AC4249D01835AC4246D01835AC4243D0BF
:102B70001835AC4240D005F55675AC423CD01835FE
:102B8000AC4239D01835AC4236D01835AC4233D0CF
:102B90001835AC4230D01835AC422DD01835AC4287
:102BA0002AD01835AC4227D0264E274DAC4218BF4C
:102BB000B44211D0254DAC420ED01435AC420BD0EE
:102BC0001435AC4208D01435AC4205D01435AC42B3
:102BD00002D01435AC4224D1C46D04F01F05012489
:102BE000AC407C60046863608368402B20D003683D
:102BF00099600368DA6014E0C46D04F01F0C3F2490
:102C000004FA0CF4BC6005682C6824F480242C6061
:102C1000046863608368402B05D00368996003688B
:102C2000DA60F0BC704703689A600368D960F8E71F
:102C300003689A600368D960F3E700BF10000240A0
:102C400028000240085402581C54025830540258BC
:102C500003682749274A934218BF8B422FD0183266
:102C600093422CD01832934229D01832934226D066
:102C70001832934223D01832934220D01832934214
:102C80001DD002F55672934219D01832934216D0D5
:102C90001832934213D01832934210D01832934214
:102CA0000DD0183293420AD01832934207D018320E
:102CB000934204D023F0FF038365806D704710B406
:102CC000D9B210390C4AA2FB0142C2F302120B4CDA
:102CD000A25CC2655F2907D96FF3090304338365DA
:102CE000806D5DF8044B70476FF309038365F7E768
:102CF0001000024028000240ABAAAAAA34CB030865
:102D000083699BB9836A012B0AD0022B02D00BB1D5
:102D100000207047C36A13F0807F2AD100207047DB
:102D2000C36AB3F1C07F26D000207047B3F5005FBF
:102D30000AD0836A022B26D9032B26D1C36A13F04B
:102D4000807F24D100207047836A032B03D8DFE8FB
:102D500003F01404140A00207047C36A13F0807F44
:102D60000DD100207047C36AB3F1C07F09D00020A5
:102D700070470120704701207047012070470120F3
:102D800070470120704701207047002070470120E4
:102D90007047000003682149214A934218BF8B42C3
:102DA00027D01432934224D01432934221D01432CB
:102DB00093421ED0143293421BD01432934218D047
:102DC0001432934215D0DAB2103A1649A1FB02121E
:102DD000120915491944A8291ED9144B13449B0004
:102DE0000366134B436602F01F0201239340836680
:102DF0007047DBB2083B0F4AA2FB03230E4A02EBEB
:102E00001312920002660D4A4266C3F304130122B4
:102E100002FA03F3836670470832DEE7085402586B
:102E20001C540258ABAAAAAAF0FBFDBF00820010F6
:102E300080080240CDCCCCCC0096001680580258B9
:102E400001794A1E072A2BD830B40368154D164C59
:102E5000A34218BFAB4218D01434A34215D0143487
:102E6000A34212D01434A3420FD01434A3420CD086
:102E70001434A34209D01434A34206D00B4B0B44A4
:102E80009B00C3660A4B036705E00A4B0B449B009B
:102E9000C366094B036701239340436730BC704707
:102EA000704700BF085402581C5402583F8200105B
:102EB000400902403F9600164059025870B504463A
:102EC000FFF71CFD002C00F0B9810546236853492B
:102ED000534A934218BF8B420CBF0121002150D0AE
:102EE000183293424DD0183293424AD0183293424E
:102EF00047D01832934244D01832934241D018320E
:102F000093423ED002F5567293423AD01832934221
:102F100037D01832934234D01832934231D018321D
:102F200093422ED0183293422BD01832934228D09D
:102F30001832934225D03B493B4A934218BF8B42FB
:102F400000F03481394A934200F0308114329342C8
:102F500000F02C811432934200F028811432934205
:102F600000F024811432934200F020811432934205
:102F700000F01C8140236365032384F83530012071
:102F80004AE0022284F83520002284F8342079BBFC
:102F9000274A93422CD01832934229D018329342B8
:102FA00026D01832934223D01832934220D01832C0
:102FB00093421DD002F55672934219D018329342B3
:102FC00016D01832934213D01832934210D01832D0
:102FD00093420DD0183293420AD01832934207D050
:102FE0001832934204D01A6822F001021A6003E0FA
:102FF0001A6822F001021A6023681A6812F0010FA1
:1030000018D0FFF77BFC431B052BF5D92023636504
:10301000032384F83530012070BD00BF100002404A
:1030200028000240085402581C54025830540258D8
:10303000400002401A6882491140A268E0680243D9
:103040002069024360690243A0690243E0690243C8
:10305000206A02430A43616A042900F09880794992
:1030600009686FF30F01B1F1005F10D361682E2979
:1030700040F2928052290AD83F2908D33F3972483A
:1030800020FA01F111F0010F01D042F480121A6010
:103090002668756925F00705636A1D43042B08D16E
:1030A000A36A1D43E36A23B12046FFF729FE0028E7
:1030B00076D175612046FFF7CBFDE36D03F01F026B
:1030C0003F239340836023686049614A934218BF5D
:1030D0008B4242D0183293423FD0183293423CD0B8
:1030E0001832934239D01832934236D01832934274
:1030F00033D01832934230D002F5567293422CD01E
:103100001832934229D01832934226D01832934273
:1031100023D01832934220D0183293421DD0183257
:1031200093421AD01832934217D04A4A934214D08D
:103130001432934211D0143293420ED0143293427F
:103140000BD01432934208D01432934205D014327B
:10315000934202D01432934213D12046FFF71AFE55
:10316000A368802B5DD0236E22791A60636EA26EF5
:103170005A606368013B072B56D90023E366236737
:10318000636700206065012384F8353044E7E16A15
:10319000206B01430A4362E72929FFF478AF74E703
:1031A00040236365012084F8350035E7022284F866
:1031B0003520002284F8342019686FF31011A268BA
:1031C000402A2CD0802A27D00022E06842EAD00290
:1031D000206942EAD002606942EAD002A06942EA6C
:1031E000D002E06942EAD002206A42EA10120A43A1
:1031F0001A602268184B1344184AA2FB03231B09C8
:103200009B00E3652046FFF723FDE26D02F01F01FE
:1032100001228A40426056E74FF48042D5E71022EF
:10322000D3E7002363609EE72046FFF709FEE36EC5
:1032300000221A60236F626F5A60A2E70120EBE65A
:103240003F8010FE0010005C0F030F0010000240D2
:103250002800024008540258F8ABFDA7CDCCCCCCD6
:10326000002800F03E8170B5044690F83400012833
:1032700000F03981012084F8340094F83500C0B2A0
:10328000012807D04FF400636365002384F83430CD
:10329000012070BD022084F83500002060652068A0
:1032A000924E934DA84218BFB0422FD01835A84275
:1032B0002CD01835A84229D01835A84226D0183568
:1032C000A84223D01835A84220D01835A8421DD0D6
:1032D00005F55675A84219D01835A84216D01835EC
:1032E000A84213D01835A84210D01835A8420DD0E6
:1032F0001835A8420AD01835A84207D01835A84278
:1033000004D0056825F00105056003E0056825F097
:10331000010505602046FFF7C1FB23687349744A25
:10332000934218BF8B4238D01832934235D01832AE
:10333000934232D0183293422FD0183293422CD07D
:103340001832934229D01832934226D002F5567291
:10335000934222D0183293421FD0183293421CD08D
:103360001832934219D01832934216D01832934231
:1033700013D01832934210D0183293420DD01A68ED
:1033800022F00E0242F00A021A60236C93B1226806
:10339000136843F0040313600CE01A6822F01E0265
:1033A00042F016021A60236C23B12268136843F0BE
:1033B0000803136023684D494D4A934218BF8B425E
:1033C00042D0183293423FD0183293423CD0183248
:1033D000934239D01832934236D01832934233D0C8
:1033E0001832934230D002F5567293422CD01832E4
:1033F000934229D01832934226D01832934223D0D8
:103400001832934220D0183293421DD01832934282
:103410001AD01832934217D0364A934214D014323D
:10342000934211D0143293420ED0143293420BD0F7
:103430001432934208D01432934205D0143293428E
:1034400002D0143293420ED1236E1A6812F4803FD8
:1034500003D01A6842F480721A60E36E1BB11A68D6
:1034600042F480721A6023682049214A934218BFAF
:103470008B4230D0183293422DD0183293422AD04A
:103480001832934227D01832934224D018329342F4
:1034900021D0183293421ED002F5567293421AD0B0
:1034A0001832934217D01832934214D018329342F4
:1034B00011D0183293420ED0183293420BD01832EA
:1034C000934208D01832934205D01A6842F00102A4
:1034D0001A600020DDE61A6842F001021A6000203E
:1034E000D7E6012070470220D3E600BF100002405B
:1034F0002800024008540258002800F0288108B52E
:10350000024690F83530DBB2022B03D080234365AE
:10351000012008BD0368904890498B4218BF834240
:103520000CBF0120002065D018318B4262D01831C9
:103530008B425FD018318B425CD018318B4259D00E
:1035400018318B4256D018318B4253D001F5567149
:103550008B424FD018318B424CD018318B4249D01E
:1035600018318B4246D018318B4243D018318B42F0
:1035700040D018318B423DD018318B423AD0196877
:1035800021F00E0119601368734874498B4218BF0B
:1035900083426AD072498B4267D018318B4264D023
:1035A00018318B4261D018318B425ED018318B427A
:1035B0005BD018318B4258D001F556718B4254D0F4
:1035C00018318B4251D018318B424ED018318B427A
:1035D0004BD018318B4248D018318B4245D018312E
:1035E0008B4242D018318B423FD0196821F0010143
:1035F00019603EE0042182F8351080BB584A93429E
:103600002DD0183293422AD01832934227D0183244
:10361000934224D01832934221D0183293421ED0C4
:1036200002F5567293421AD01832934217D01832CC
:10363000934214D01832934211D0183293420ED0D4
:10364000183293420BD01832934208D0183293426A
:1036500005D01A6822F001021A60002059E71A68A2
:1036600022F001021A60002053E7196821F00101DD
:1036700019601368384839498B4218BF834242D0D9
:1036800018318B423FD018318B423CD018318B42DD
:1036900039D018318B4236D018318B4233D01831A3
:1036A0008B4230D001F556718B422CD018318B42B1
:1036B00029D018318B4226D018318B4223D01831B3
:1036C0008B4220D018318B421DD018318B421AD03A
:1036D00018318B4217D023498B4214D014318B42BE
:1036E00011D014318B420ED014318B420BD01431D7
:1036F0008B4208D014318B4205D014318B4202D05A
:1037000014318B4217D1116E0B6823F480730B6058
:10371000906DD36D03F01F0101238B404360536E06
:10372000916E5960D36E33B1196821F480711960BC
:10373000136F516F5960012382F83530002382F8EE
:103740003430136D2BB1104698470020E1E601207C
:1037500070470020DDE600BF100002402800024054
:103760004000024008540258F0B583B004460023DC
:1037700001937D4B1D687D4BA3FB0535AD0A876D1D
:103780003E68D7F800C0036879497A48834218BF79
:103790008B420CBF0120002061D0774A93425ED05B
:1037A000183293425BD01832934258D01832934269
:1037B00055D01832934252D0183293424FD002F56E
:1037C000567293424BD01832934248D018329342EB
:1037D00045D01832934242D0183293423FD018322B
:1037E00093423CD01832934239D01832934236D0AB
:1037F0006249634A934218BF8B4212D0614A934296
:103800000FD0143293420CD01432934209D01432A8
:10381000934206D01432934203D01432934240F0C4
:1038200061821A68E16D01F01F010420884010EAEE
:103830000C0F00F0A78212F0040F00F0A382786052
:1038400012F4004F00F05A8212F4803F40F0508290
:10385000A36C002B00F046822046984742E2E26DBE
:1038600002F01F0108228A40324241D070BB424A16
:1038700093422BD01832934228D01832934225D04D
:103880001832934222D0183293421FD018329342FA
:103890001CD002F55672934218D01832934215D0BC
:1038A0001832934212D0183293420FD018329342FA
:1038B0000CD01832934209D01832934206D01832F5
:1038C000934203D01A68C2F3C00202E01A68C2F33E
:1038D00080026AB11A6822F004021A60E36D03F0F4
:1038E0001F0208239340BB60636D43F001036365CF
:1038F000E26D02F01F0226FA02F313F0010F47D027
:1039000023681B481B498B4218BF83423CD01831A7
:103910008B4239D018318B4236D018318B4233D09C
:1039200018318B4230D018318B422DD018318B4258
:103930002AD001F556718B4226D018318B4223D004
:1039400018318B4220D018318B421DD018318B4258
:103950001AD018318B4217D018318B4214D018313D
:103960008B4211D01B6813E004000024B5814E1B6C
:103970001000024028000240400002400854025853
:103980001C540258305402585B6913F0800F3BD12D
:10399000E36D03F01F03042202FA03F333423FD026
:1039A0002268964896498A4218BF824234D018311C
:1039B0008A4231D018318A422ED018318A422BD017
:1039C00018318A4228D018318A4225D018318A42CB
:1039D00022D001F556718A421ED018318A421BD07E
:1039E00018318A4218D018318A4215D018318A42CB
:1039F00012D018318A420FD018318A420CD01831B7
:103A00008A4209D013680BE001239340BB60636DC9
:103A100043F002036365BBE7126812F0020F3DD169
:103A2000E36D03F01F03102202FA03F333425FD069
:103A30002268724872498A4218BF824234D01831D3
:103A40008A4231D018318A422ED018318A422BD086
:103A500018318A4228D018318A4225D018318A423A
:103A600022D001F556718A421ED018318A421BD0ED
:103A700018318A4218D018318A4215D018318A423A
:103A800012D018318A420FD018318A420CD0183126
:103A90008A4209D01268C2F3800208E0BB60636DFD
:103AA00043F004036365BBE71268C2F3C002FAB1D6
:103AB000BB6023681A6812F4802F0DD01B6813F4C2
:103AC000002F04D1236C9BB12046984710E0A36CD3
:103AD00073B1204698470BE01A6812F4807F03D137
:103AE0001A6822F008021A60236C0BB1204698472E
:103AF000E36D03F01F03202202FA03F3334200F0C8
:103B0000938022683D483E498A4218BF82422ED0A7
:103B100018318A422BD018318A4228D018318A4273
:103B200025D018318A4222D018318A421FD018314C
:103B30008A421CD001F556718A4218D018318A4247
:103B400015D018318A4212D018318A420FD018315C
:103B50008A420CD018318A4209D018318A4206D0E4
:103B600018318A4203D01268C2F3400202E01268A0
:103B7000C2F30012002A57D0BB6094F83530DBB294
:103B8000042B0ED023681A6812F4802F3AD01B68D9
:103B900013F4002F2DD1636C002B45D0204698479D
:103BA00042E02268136823F0160313602268536909
:103BB00023F080035361236CBBB12268136823F0A8
:103BC00008031360E36D03F01F023F239340BB60C3
:103BD000012384F83530002384F83430236D002B22
:103BE00000F08080204698477CE0A36C002BE4D155
:103BF000E8E7E36BC3B12046984715E010000240A8
:103C0000280002401A6812F4807F09D11A6822F055
:103C100010021A60012384F83530002384F8343010
:103C2000E36B0BB120469847636D002B5AD0636D50
:103C300013F0010F52D0042384F8353023689649DD
:103C4000964A934218BF8B422FD0183293422CD001
:103C50001832934229D01832934226D01832934218
:103C600023D01832934220D0183293421DD002F54F
:103C70005672934219D01832934216D0183293429A
:103C800013D01832934210D0183293420DD018320C
:103C900093420AD01832934207D01832934204D08C
:103CA0001A6822F001021A6003E01A6822F0010289
:103CB0001A60019B01330193AB4204D823681B684F
:103CC00013F0010FF5D123681B6813F0010F0BD01F
:103CD000032384F83530002384F83430E36C0BB1CF
:103CE0002046984703B0F0BD012384F83530F2E751
:103CF000236C002BF6D020469847F3E712F0200FF4
:103D00003AD123686449654A934218BF8B422FD049
:103D1000183293422CD01832934229D01832934251
:103D200026D01832934223D01832934220D0183232
:103D300093421DD002F55672934219D01832934225
:103D400016D01832934213D01832934210D0183242
:103D500093420DD0183293420AD01832934207D0C2
:103D60001832934204D01A6822F004021A6003E069
:103D70001A6822F008021A60236C002BB2D0204689
:103D80009847AFE70220884010EA0C0F60D012F08D
:103D9000020F5DD0786012F4004F0ED012F4803F15
:103DA00005D1636C002B9DD0204698479AE7E36BC2
:103DB000002B97D02046984794E712F0200F40D16F
:103DC00023683549354A934218BF8B422FD01832A9
:103DD00093422CD01832934229D01832934226D0E5
:103DE0001832934223D01832934220D01832934293
:103DF0001DD002F55672934219D01832934216D054
:103E00001832934213D01832934210D01832934292
:103E10000DD0183293420AD01832934207D018328C
:103E2000934204D01A6822F00A021A6003E01A686A
:103E300022F014021A60012384F83530002384F83C
:103E40003430E36B002B3FF44DAF2046984749E7F1
:103E5000082000FA01F111EA0C0F3FF443AF12F011
:103E6000080F3FF43FAF1A6822F00E021A60E36DAC
:103E700003F01F03012202FA03F37B60626584F8FA
:103E80003520002384F83430E36C002B3FF42AAF54
:103E90002046984726E700BF100002402800024055
:103EA00030B4416B0468D4F884306F4A134043EA5D
:103EB0008103C4F884300468D4F8843023F47F0389
:103EC000856B43EA0543C4F88430836B0B44046874
:103ED000D4F88810114041EA8301C4F888100468BE
:103EE000D4F8881021F4FE01C56B41EA0541C4F8FD
:103EF0008810C16B03EB41030468D4F8A010114093
:103F000041EA8301C4F8A0100468D4F8A01021F499
:103F1000FE01056C41EA0541C4F8A010016C446C37
:103F200004FB01330468D4F8B010114041EA830166
:103F3000C4F8B0100468D4F8B01021F4FE01856C08
:103F400041EA0541C4F8B010816CC46C04FB013334
:103F50000468D4F8AC10114041EA8301C4F8AC10F5
:103F6000016D446D04FB01330468D4F8F010114076
:103F700041EA8301C4F8F0100468D4F8F01021F489
:103F80007C11856D41EA0541C4F8F010816D03EBA9
:103F900041030468D4F8C0100A4042EA8303C4F81D
:103FA000C0300268D2F8C03023F47C13C16D43EAFC
:103FB0000143C2F8C0300268D2F8C03023F07C530D
:103FC000016E43EA0163C2F8C030436B274A1A44CA
:103FD0009200C266836B02EB83030367C16B03EB42
:103FE000C1034367016C446C04FB01F103EB8103E3
:103FF0008367816CC46C04FB01F103EB8103C3672D
:10400000016D446D04FB01F103EB8103C0F88030C6
:10401000816D03EBC103C0F88430816EC46D01FB78
:1040200004FC03EB8C03C0F88830046E04FB01F140
:1040300003EB8103C0F890300D498B420DD9D0F8C5
:104040009C3043F02003C0F89C30032380F8983064
:10405000012007E0002342F8043BD0F8903093425F
:10406000F8D8002030BC70470300FFFF002B001081
:10407000FCD3004030B595B004464C22A04901A8BD
:1040800037F0DCFE002C00F0388123689D4A934213
:1040900020D094F898300BB32268936923F0100372
:1040A0009361FEF72BFC054623689A6912F0080F0E
:1040B0001AD0FEF723FC431B0A2BF5D9D4F89C3009
:1040C00043F00103C4F89C30032384F898300120A6
:1040D00015B030BD03F580736360DAE784F899307A
:1040E0002046FDF7BBFBD7E79A6942F001029A61CF
:1040F000FEF704FC054623689A6912F0010F0FD100
:10410000FEF7FCFB401B0A28F5D9D4F89C3043F09D
:104110000103C4F89C30032384F898300120D7E7CA
:104120009A6942F002029A61237C012B40D02268F6
:10413000936943F040039361637C012B3ED0226876
:10414000936923F480439361A37C012B3CD02268C4
:10415000936943F4805393612268936923F4407315
:10416000A1680B4393612268936923F0A4039361D0
:104170002268136923F010031361E368012B29D02F
:10418000002B2CD0022B00F09B802268936943F017
:10419000800393612268136943F010031361E3689D
:1041A000032B1CD12268936943F02003936116E02E
:1041B0002268936923F040039361BDE72268936905
:1041C00043F480439361BFE72268936923F48053EB
:1041D0009361C1E72268936943F004039361A36983
:1041E0005A1EE369013B1B0243EA4263226A013A19
:1041F00013436269013A216843EA0243CB61A36831
:10420000B3F5407F62D0236E33B12268D2F8C0305C
:10421000616E0B43C2F8C030E36D226ED3420DD005
:104220002168D1F8C83023F00703A26E14A800EB70
:10423000820252F84C2C1343C1F8C830236C6BB186
:104240002168D1F8BC3023F00703626C14A800EB9E
:10425000820252F84C2C1343C1F8BC30A36C73B1EA
:104260002168D1F8BC3023F07003E26C14A800EB95
:10427000820252F84C2C43EA0213C1F8BC30236D81
:1042800073B12168D1F8BC3023F4E063626D14A8E7
:1042900000EB820252F84C2C43EA0223C1F8BC30F6
:1042A0002268184B9A4222D00023C4F89430C4F8F4
:1042B0009C30012384F898302046FFF7F1FD07E792
:1042C0002268936943F02003936188E7A36A013B66
:1042D000E26A013A43EA0223226B013A43EA0213FB
:1042E000626A013A216843EA0243CB608BE7626865
:1042F000936823F003039360D6E70120E8E600BF4C
:10430000B4C1030800A0004090F89830013BDBB234
:10431000012B07D9D0F89C3043F00203C0F89C3041
:10432000012070470B68DBB9CB68072B0ED08A6879
:10433000DB0643EA82730A6943EA02434A6913438C
:10434000C26E496842F82130002070470A69CB6983
:104350001B0243EA02438A69134343F06053EFE7C9
:1043600010B4CA680B6943EA4273072A0FD04A693E
:104370008C6842EA8472006F496800EBC10C40F817
:104380003130CCF8042000205DF8044B70478A6976
:10439000F1E790F898C05FFA8CFCBCF1010F07D0F0
:1043A000D0F89C3043F00403C0F89C3001207047E3
:1043B000920042EA011242EA43030168009A1A435A
:1043C000C1F880200020704790F89830DBB2012BB4
:1043D00007D0D0F89C3043F00403C0F89C30012093
:1043E0007047022380F898300268936923F0010334
:1043F00093610023C0F89C301846704790F898C02D
:104400005FFA8CFCBCF1020F40F0DF8070B54029F0
:104410000CD041293DD0046D8C426DD8D0F89C3031
:1044200043F02003C0F89C300120C1E00468D4F8B8
:10443000A05015F4FE0F0CD0D4F8A45015F07F0F47
:104440000FD1D0F89C3043F48073C0F89C30012029
:10445000AEE0D0F89C3043F02003C0F89C3001203F
:10446000A6E0D4F8A46016F0807604D0D4F8A0506A
:10447000002D0CDB0026D4F8A440C4F30524264408
:10448000456F446C06FB04F405EB840E3BE001260B
:10449000F1E70468D4F8B05015F4FE0F0CD0D4F84E
:1044A000B45015F07F0F0FD1D0F89C3043F48073D7
:1044B000C0F89C3001207BE0D0F89C3043F0200312
:1044C000C0F89C30012073E0D4F8B46016F0807618
:1044D00004D0D4F8B050002D0CDB0026D4F8B44042
:1044E000C4F305242644856FC46C06FB04F405EB75
:1044F000840E08E00126F1E7C56F446D01FB04F46A
:1045000005EB840E0026DEF8004004F08044546081
:1045100064BBDEF80040C4F38A441460DEF8004057
:1045200004F000549460DEF8004004F0004414618C
:10453000BEF80440D461BEF8064004F00F04D46015
:10454000DEF8044004F480145461DEF8044004F4FE
:10455000001494619EF8074004F07F041462DEF8B2
:104560000440E40F54624FF0000C0CE0DEF8004011
:1045700024F060441460D1E70EEB0C04247A03F8B5
:104580000C400CF1010CD468144D2C5D6445F3D83B
:10459000402909D041290CD01F290ED802680123D7
:1045A0008B40C2F8983002E00368C3F8A86000208E
:1045B00070BD0368C3F8B860F9E701F01F01026835
:1045C00001238B40C2F89C30F1E7D0F89C3043F0D7
:1045D0000803C0F89C300120704700BF3CCB0308A3
:1045E00090F89830013BDBB2012B07D9D0F89C3012
:1045F00043F00203C0F89C300120704710B40368F8
:104600009C6D0C4224D1DC6D44F00104DC6511F496
:10461000007F05D00468D4F8E0301343C4F8E030DC
:1046200011F4806F05D00468D4F8E4301343C4F863
:10463000E4300068436D0C4A0A40134343650B4A5B
:10464000536943EA9173536100205DF8044B70474E
:104650009C6D31EA040402D00324DC65D7E7DC6DED
:1046600044F00204DC65D2E7FFFFCF3F00A8004022
:104670007047704770477047704770477047704782
:104680007047704770477047704770477047704772
:104690002DE9F04F83B00446904B1A695B691340D3
:1046A00001939B07009303681A6D02F4704A5A6DD8
:1046B0000AEA020A1A6D02F00F095A6D09EA0209A4
:1046C0001A6D02F0F0085A6D08EA02081E6D06F035
:1046D00071565A6D16401F6D07F060775A6D17407E
:1046E0005D6DD3F850B015F4807F02D01BF4807F4D
:1046F00064D115F4806F02D01BF4806F67D1009BEA
:10470000002B74D1BAF1000F7ED1B9F1000F40F047
:104710008780B8F1000F40F08F8015F4006F03D050
:104720001BF4006F40F0948015F4007F03D01BF45D
:10473000007F40F0988015F4002F03D01BF4002F69
:1047400040F0A18015F4803F03D01BF4803F40F07F
:10475000A58015F4802F03D01BF4802F40F0A98092
:1047600015F4003F0FD01BF4003F0CD023684FF42A
:1047700000321A65594B00221A61D4F89C3043F07C
:104780008003C4F89C30002F40F09E804EB1236817
:104790001E65B20F514B1A61D4F89C303343C4F8F4
:1047A0009C3022684E4B9A4200F09C80D4F89C309A
:1047B000002B40F0F98003B0BDE8F08F4FF4807219
:1047C0001A65464B00221A61FFF75BFF91E72368E9
:1047D000D3F8DC10D3F8E4204FF4806018653F4B29
:1047E0000020186111402046FFF747FF87E7236844
:1047F00000221A65019B03F00303384A13610099F4
:104800002046FFF735FF7DE72368C3F850A04FEA45
:104810009A72324B1A6151462046FFF72AFF74E71D
:104820002368C3F850904FEA99722C4B1A6149469D
:104830002046FCF74DFF6CE72368C3F850804FEA31
:104840009872264B1A6141462046FFF713FF64E732
:1048500023684FF400621A65204B00221A6120463B
:10486000FFF709FF60E72368D3F8D810D3F8E020FA
:104870004FF400701865194B002018611140204654
:10488000FFF7FAFE57E723684FF400221A65134B2F
:1048900000221A612046FFF7F1FE53E723684FF428
:1048A00080321A650D4B00221A612046FFF7E7FEA1
:1048B0004FE723684FF480221A65084B00221A61E3
:1048C0002046FFF7DDFE4BE723681F65BA0F034B59
:1048D0001A6139462046FFF7D6FE57E700A8004088
:1048E00000A0004063689A6812F0030F3FF45EAFC7
:1048F000196A01F00F015A6A186A00F03008586A04
:1049000008EA00081F6A07F4C077586A07401E6A61
:1049100006F4FC46586A06401D6A05F4F025586AFC
:104920000540D3F82490D3F820A011401CD1B8F151
:10493000000F1ED119F0400F02D01AF0400F20D105
:104940005FBB36B163681E62D4F89C303343C4F851
:104950009C30002D3FF42AAF63681D62D4F89C3070
:104960002B43C4F89C3021E719622046FFF78CFEE8
:10497000DDE76368C3F8208041462046FFF785FEE7
:10498000D8E76368D96BDA6B4020186202F03F0207
:10499000090C2046FFF77AFED2E763681F623946AA
:1049A0002046FFF774FECCE72046FFF76BFE02E7D8
:1049B000F0B583B000236BE085685E000324B4404B
:1049C00025EA0405CC68B4402C438460456825EA98
:1049D0000C054C68C4F300149C402C43446069E00F
:1049E000DD08083550F8254003F0070C4FEA8C0C21
:1049F0004FF00F0E0EFA0CFE24EA0E0E0C6904FAAC
:104A00000CF444EA0E0440F825406BE0092400E071
:104A1000002404FA0EF42C430CF1020C694D45F805
:104A20002C404FF0B0442568D44325EA02064F6875
:104A300017F4801F01D042EA05064FF0B0452E6002
:104A40006D6804EA05064F6817F4001F01D042EABA
:104A500005064FF0B0456E60D5F8845004EA0506AF
:104A60004F6817F4003F01D042EA05064FF0B04509
:104A7000C5F88460D5F880502C404E6816F4803F0D
:104A800001D042EA05044FF0B042C2F88040013341
:104A90000A6832FA03F400F092804FF0010C0CFA2D
:104AA00003FC1CEA0202F2D04C6804F00304013C4F
:104AB000012C81D94C6804F00304032C0CD0C46889
:104AC0005D004FF0030C0CFA05FC24EA0C0C8C681A
:104AD000AC4044EA0C04C4604C6804F00304022CAB
:104AE0003FF47EAF04684FEA430E4FF0030C0CFA1C
:104AF0000EFC24EA0C0C4C6804F0030404FA0EF4D7
:104B000044EA0C0404604C6814F4403FBFD02E4CBF
:104B1000D4F8F45045F00205C4F8F450D4F8F44049
:104B200004F002040194019C4FEA930C0CF102057D
:104B3000244C54F8255003F0030E4FEA8E0E0F2438
:104B400004FA0EF425EA0405204CA0423FF460AFBD
:104B500004F58064A04222D004F58064A04220D0F5
:104B600004F58064A0421ED004F58064A0421CD0ED
:104B700004F58064A0421AD004F58064A04218D0E5
:104B800004F58064A04216D004F58064A04214D0DD
:104B900004F58064A0423FF439AF0A2439E70124C8
:104BA00037E7022435E7032433E7042431E70524FB
:104BB0002FE706242DE707242BE7082429E703B075
:104BC000F0BD00BF00040058004402580000025825
:104BD0000AB181617047090481617047134BDB683A
:104BE00013F0040F07D1114BDB6803F00703834276
:104BF0001AD00120704710B50C4AD36823F0070380
:104C00000343D360FDF77AFE0446084B5B6813F458
:104C1000005F07D1FDF772FE001BB0F57A7FF4D973
:104C2000012000E0002010BD00207047004802581D
:104C3000002800F0398338B50446036813F0010FEB
:104C400025D0944A136903F03803926A102B15D0CB
:104C5000182B0FD06368B3F5803F3FD0002B53D1A2
:104C60008C4B1A6822F480321A601A6822F480226F
:104C70001A6038E002F00302022AEBD1854B1B6870
:104C800013F4003F03D06368002B00F00F83236808
:104C900013F0020F00F0A1807E4A1369926A13F0AC
:104CA00038035AD0182B55D0E368002B00F0DE8073
:104CB00078490A6822F0190213430B60FDF71EFEC3
:104CC0000546744B1B6813F0040F40F0AD80FDF7F0
:104CD00015FE401B0228F4D90320EEE26D4A13684A
:104CE00043F48033136063682BB3FDF707FE05467A
:104CF000684B1B6813F4003FC9D1FDF7FFFD401B53
:104D00006428F5D90320D8E2B3F5A02F09D0614B70
:104D10001A6822F480321A601A6822F480221A601B
:104D2000E1E75C4B1A6842F480221A601A6842F488
:104D300080321A60D7E7FDF7E1FD0546554B1B6849
:104D400013F4003FA3D0FDF7D9FD401B6428F5D92B
:104D50000320B2E212F0030FA6D14E4B1B6813F0F2
:104D6000040F03D0E368002B00F0A282494A1368C5
:104D700023F01903E1680B431360FDF7BFFD0546FF
:104D8000444B1B6813F0040F06D1FDF7B7FD401B21
:104D90000228F5D9032090E2FDF7CAFD41F2030392
:104DA000984212D82269402A07D03A494B6823F426
:104DB0007C3343EA02334B600FE0364A536823F4F6
:104DC0007C3343F40033536007E0324A536823F0E6
:104DD000FE43216943EA01635360236813F0100F17
:104DE00000F088802B4A136903F03803926A082B7D
:104DF00056D0182B50D0E369002B00F0B880254A1C
:104E0000136843F080031360FDF778FD0546214BDE
:104E10001B6813F4807F40F08880FDF76FFD401B16
:104E20000228F4D9032048E2FDF782FD41F2030392
:104E3000984212D82269402A07D016494B6823F4B9
:104E40007C3343EA02334B60C7E7124A536823F4CA
:104E50007C3343F400335360BFE70E4A536823F0BA
:104E6000FE43216943EA01635360B6E7094A1368C8
:104E700023F001031360FDF741FD0546054B1B6858
:104E800013F0040FA9D0FDF739FD401B0228F5D916
:104E9000032012E20044025802F00302012AAAD1C0
:104EA000A14B1B6813F4807F03D0E369802B40F093
:104EB0000182FDF73DFD41F20303984212D8226AB8
:104EC000202A07D098494B6823F0F84343EA8263CD
:104ED0004B600FE0944A536823F0F84343F080435B
:104EE000536007E0904AD36823F07C53216A43EA79
:104EF0000163D360236813F0080F60D06369002B4F
:104F000049D0894A536F43F001035367FDF7F6FC1C
:104F10000546854B5B6F13F0020F50D1FDF7EEFC99
:104F2000401B0228F5D90320C7E1FDF701FD41F23E
:104F30000303984212D8226A202A07D07A494B6884
:104F400023F0F84343EA82634B60D3E7764A536821
:104F500023F0F84343F080435360CBE7724AD368B1
:104F600023F07C53216A43EA0163D360C2E76E4AAF
:104F7000136823F080031360FDF7C0FC05466A4BFD
:104F80001B6813F4807FB5D0FDF7B8FC401B0228E6
:104F9000F5D9032091E1644A536F23F0010353676D
:104FA000FDF7ACFC0546604B5B6F13F0020F06D0BB
:104FB000FDF7A4FC401B0228F5D903207DE12368FE
:104FC00013F0200F29D0A3699BB1574A136843F40B
:104FD00080531360FDF792FC0546534B1B6813F496
:104FE000005F1AD1FDF78AFC401B0228F5D9032087
:104FF00063E14D4A136823F480531360FDF77EFC90
:105000000546494B1B6813F4005F06D0FDF776FC9C
:10501000401B0228F5D903204FE1236813F0040F49
:1050200021D1636A002B00F047813F4A126902F0E8
:105030003802182A00F0EE80022B79D03A4A136821
:1050400023F080731360FDF759FC0446364B1B6850
:1050500013F0007F00F0DC80FDF750FC001B0228FD
:10506000F4D9032029E1314A136843F480731360B3
:10507000FDF744FC05462D4B1B6813F4807F06D1D9
:10508000FDF73CFC401B6428F5D9032015E1A3681B
:10509000012B0AD00BBB244B1A6F22F001021A67B6
:1050A0001A6F22F004021A6704E01F4A136F43F0DC
:1050B00001031367A36833B3FDF720FC05461A4BC1
:1050C0001B6F13F0020FACD1FDF718FC401B41F22F
:1050D00088339842F3D90320EFE0052B09D0124B17
:1050E0001A6F22F001021A671A6F22F004021A677F
:1050F000E0E70D4B1A6F42F004021A671A6F42F094
:1051000001021A67D6E7FDF7F9FB0546064B1B6F50
:1051100013F0020F85D0FDF7F1FB401B41F28833FD
:105120009842F3D90320C8E00044025800480258CE
:10513000694A136823F080731360FDF7DFFB0546AF
:10514000654B1B6813F0007F06D0FDF7D7FB401BB3
:105150000228F5D90320B0E05F4B996A5F4A0A4004
:10516000A16AE06A41EA00110A439A62226B013A9D
:10517000C2F30802616B0139490289B20A43A16B8B
:105180000139090401F4FE010A43E16B0139090602
:1051900001F0FE410A431A63DA6A22F00102DA6280
:1051A0005A6B6FF3CF02A16C42EAC1025A63DA6A0A
:1051B00022F00C02216C0A43DA62DA6A22F002025F
:1051C000616C0A43DA62DA6A42F48032DA62DA6ADD
:1051D00042F40032DA62DA6A42F48022DA62DA6A8F
:1051E00042F00102DA621A6842F080721A60FDF73A
:1051F00085FB0446384B1B6813F0007F06D1FDF792
:105200007DFB001B0228F5D9032056E0002054E066
:10521000002052E0304A916A106B012B4ED001F011
:105220000303A26A93424BD1C1F30511E36A994289
:1052300048D1C0F30802236B013B9A4244D1C0F32A
:105240004622636B013B9A4240D1C0F30642A36BF6
:10525000013B9A423CD1C0F30660E36B013B9842AC
:1052600038D11D4B5B6BC3F3CC03A26C9A4201D1C6
:10527000002022E0184AD36A23F00103D362FDF72D
:105280003DFB0546FDF73AFBA842FBD0124A536BA3
:105290006FF3CF03A16C43EAC1035363D36A43F0B6
:1052A0000103D362002008E001207047012004E0E0
:1052B000012002E0012000E0002038BD0120FCE7D1
:1052C0000120FAE70120F8E70120F6E70120F4E7E2
:1052D0000120F2E70120F0E7004402580CFCFFFF38
:1052E000754B1B6903F03803102B00F0DE80182B80
:1052F0000FD0002B40F0DB806F4B1B6813F0200FAA
:1053000000F0D7806C4B1B68C3F3C1036B48D840D7
:10531000704710B4684B9A6A02F003029C6AC4F3A7
:105320000510D96A01F001015B6BC3F3CC0301FBEB
:1053300003F307EE903AF8EE677A14F47C7F77D0A7
:10534000012A4AD0022A76D0002A40F091805A4B96
:105350001B6813F0200F23D057490A68C2F3C1021B
:10536000564BD34007EE103AF8EE476A07EE100AA4
:10537000B8EE476A86EE867A0B6BC3F3080306EE37
:10538000903AF8EE666A9FED4E6A67EE867A76EEA0
:10539000A77AF7EE006A77EEA67A27EE277A38E04A
:1053A00007EE100AF8EE476A9FED466A86EE267A07
:1053B000414B1B6BC3F3080306EE903AF8EE666AA6
:1053C0009FED3F6A67EE867A76EEA77AF7EE006A7F
:1053D00077EEA67A27EE277A1BE007EE100AF8EEA2
:1053E000476A9FED396A86EE267A334B1B6BC3F30F
:1053F000080306EE903AF8EE666A9FED316A67EEB2
:10540000867A76EEA77AF7EE006A77EEA67A27EE2E
:10541000277A294B1B6BC3F34623013307EE903ADF
:10542000F8EE677AC7EE276AFCEEE67A17EE900A86
:105430005DF8044B704707EE100AF8EE476A9FEDDF
:10544000236A86EE267A1C4B1B6BC3F3080306EE19
:10545000903AF8EE666A9FED1A6A67EE867A76EE03
:10546000A77AF7EE006A77EEA67A27EE277AD0E7DA
:1054700007EE100AF8EE476A9FED136A86EE267A69
:105480000D4B1B6BC3F3080306EE903AF8EE666A09
:105490009FED0B6A67EE867A76EEA77AF7EE006AE2
:1054A00077EEA67A27EE277AB3E7094870470948CE
:1054B00070470248704700BF004402580090D00374
:1054C000000000390024744C0024744A20BCBE4BF8
:1054D00040787D0100093D00002800F0328170B560
:1054E0000D4604469B4B1B6803F00F038B420BD207
:1054F000984A136823F00F030B431360136803F0FB
:105500000F038B4240F01F81236813F0040F0CD06F
:105510002269914B9B6903F070039A4205D98E4929
:105520008B6923F070031A438A61236813F0080F14
:105530000CD06269884BDB6903F070039A4205D98D
:105540008549CB6923F070031A43CA61236813F0BD
:10555000100F0CD0A269804BDB6903F4E0639A4220
:1055600005D97D49CB6923F4E0631A43CA612368F6
:1055700013F0200F0CD0E269774B1B6A03F0700325
:105580009A4205D974490B6A23F070031A430A62E0
:10559000236813F0020F0CD0E2686F4B9B6903F095
:1055A0000F039A4205D96C498B6923F00F031A4304
:1055B0008A61236813F0010F41D0674A936923F48D
:1055C0007063A1680B4393616368022B0AD0032BBD
:1055D00027D0012B2CD0604A126812F0040F06D19C
:1055E0000120ADE0126812F4003F00F0AE805A498D
:1055F0000A6922F0070213430B61FDF77FF90646A3
:10560000554B1B6903F038036268B3EBC20F16D029
:10561000FDF774F9801B41F288339842F0D90320DA
:105620008EE04D4A126812F0007FE0D1012087E041
:10563000494A126812F4807FD9D1012080E02368A2
:1056400013F0020F0CD0E268434B9B6903F00F0389
:105650009A4205D240498B6923F00F031A438A61AD
:105660003C4B1B6803F00F03AB420AD9394A13685D
:1056700023F00F032B431360136803F00F03AB42B7
:1056800065D1236813F0040F0CD02269324B9B695B
:1056900003F070039A4205D22F498B6923F07003FF
:1056A0001A438A61236813F0080F0CD062692A4BF1
:1056B000DB6903F070039A4205D22749CB6923F0D6
:1056C00070031A43CA61236813F0100F0CD0A2694B
:1056D000214BDB6903F4E0639A4205D21E49CB6992
:1056E00023F4E0631A43CA61236813F0200F0CD03F
:1056F000E269194B1B6A03F070039A4205D21649FE
:105700000B6A23F070031A430A62FFF7E9FD12499E
:105710008B69C3F30323114AD35C03F01F03D84002
:105720008B6903F00F03D35C03F01F0320FA03F32C
:105730000B4A13600B4B18600B4B1868FCF718FDF5
:1057400070BD012070470120FAE70120F8E7012031
:10575000F6E700BF002000520044025824CB0308A3
:1057600000000024040000240C00002408B5FFF70A
:10577000B7FD0B4A9369C3F303230A49CB5C03F0DB
:105780001F0320FA03F3926902F00F02885C00F015
:105790001F0023FA00F0044A1060044A136008BD99
:1057A0000044025824CB0308000000240400002415
:1057B00008B5FFF7DBFF054BDB69C3F30213044AAF
:1057C000D35C03F01F03D84008BD00BF004402585B
:1057D00024CB030808B5FFF7C9FF054BDB69C3F30A
:1057E0000223044AD35C03F01F03D84008BD00BF66
:1057F0000044025824CB03083F230360114B1A696D
:1058000002F0070242609A6902F4706282609A694B
:1058100002F00F02C2609A6902F070020261DA6956
:1058200002F070024261DA6902F4E06282611B6A8E
:1058300003F07003C361044B1B6803F00F030B609C
:10584000704700BF0044025800200052404B9B6A42
:1058500003F00303032B79D070B505460E463C4A8E
:10586000136823F080631360FDF748F80446384B53
:105870001B6813F0006F06D0FDF740F8031B022BE6
:10588000F5D9032070BD324B9A6A22F47C32296824
:1058900042EA01329A626A68013AC2F30802A968D0
:1058A0000139490289B20A43E9680139090401F45E
:1058B000FE010A4329690139090601F0FE410A4344
:1058C0009A63DA6A22F0C00269690A43DA62DA6A24
:1058D00022F02002A9690A43DA62DA6A22F0100291
:1058E000DA62DA6B6FF3CF02E96942EAC102DA6386
:1058F000DA6A42F01002DA62C6B91A46DB6A43F489
:105900000023D362124A136843F080631360FCF7EC
:10591000F5FF04460E4B1B6813F0006F14D1FCF723
:10592000EDFF001B0228F5D90320ABE7012E05D0BF
:10593000074AD36A43F40013D362E3E7044AD36A05
:1059400043F48013D362DDE700209BE7012070471A
:1059500000440258404B9B6A03F00303032B79D0A9
:1059600070B505460E463C4A136823F08053136019
:10597000FCF7C4FF0446384B1B6813F0005F06D0E9
:10598000FCF7BCFF031B022BF5D9032070BD324B83
:105990009A6A22F07C72296842EA01529A626A6825
:1059A000013AC2F30802A9680139490289B20A43DF
:1059B000E9680139090401F4FE010A432969013942
:1059C000090601F0FE410A431A64DA6A22F44062D1
:1059D00069690A43DA62DA6A22F40072A9690A4341
:1059E000DA62DA6A22F48072DA625A6C6FF3CF02FA
:1059F000E96942EAC1025A64DA6A42F48072DA6200
:105A0000C6B91A46DB6A43F48003D362124A1368AC
:105A100043F080531360FCF771FF04460E4B1B6884
:105A200013F0005F14D1FCF769FF001B0228F5D9C1
:105A30000320ABE7012E05D0074AD36A43F08073F9
:105A4000D362E3E7044AD36A43F40003D362DDE799
:105A500000209BE70120704700440258F8B5044637
:105A6000036813F0006F30D0836EB3F5001F26D0AB
:105A70000ED8ABB1B3F5801F07D102210830FFF774
:105A8000E5FE054695B12E4621E0012635461EE08D
:105A9000B3F5401F01D1002508E00126354616E088
:105AA000984AD36A43F40033D3620025954A136DB4
:105AB00023F44013A16E0B431365002607E0022177
:105AC0002830FFF747FF0546DCE700263546236808
:105AD00013F4807F14D0A36D042B31D8DFE803F0DA
